:100000000C94DF1D0C94071E0C94071E0C94071E05
:100010000C94071E0C94071E0C94071E0C94071ECC
:100020000C94071E0C94071E0C94071E0C94071EBC
:100030000C94071E0C94071E0C94071E0C94071EAC
:100040000C94EF300C94071E0C94BD300C94973038
:100050000C94071E0C94071E0C94071E0C94071E8C
:100060000C9439310C94071E00407A10F35A00A00A
:10007000724E18090010A5D4E80000E87648170071
:1000800000E40B54020000CA9A3B000000E1F505B1
:10009000000080969800000040420F000000A086FB
:1000A00001000000102700000000E803000000002D
:1000B0006400000000000A000000000001000000D1
:1000C00000002C76D888DC674F0823DFC1DFAE59EB
:1000D000E1B1B796E5E3E453C63AE651997696E87E
:1000E000E6C28426EB898C9B62ED407C6FFCEFBC02
:1000F0009C9F40F2BAA56FA5F490055A2AF75C932D
:100100006B6CF9676DC11BFCE0E40D47FEF520E662
:10011000B500D0ED902E0300943577050080841E45
:10012000080000204E0A000000C80C333333330FA0
:10013000986E12831141EF8D2114893BE65516CF3D
:10014000FEE6DB18D1844B381BF77C1D901DA4BB49
:10015000E424203284725E228100C9F124ECA1E5FE
:100160003D2700000000240027002A0000000000B6
:10017000250028002B000000000023002600290095
:10018000040404040404040402020202020203033D
:100190000303030301020408102040800102040845
:1001A00010200102040810200000000800020100D5
:1001B0000003040700000000000000000100040329
:1001C0000505040406101000FE0EFE0EFE000000E1
:1001D0000000020000000827640C53FFFF27001DE9
:1001E0006E65C231185165214471417330587530C4
:1001F000734122214451453118012701186FA1C2D2
:10020000325B2A215A4B3D7960717030213255336F
:10021000350B27021C6E65C2317835A168E462E8AF
:100220004092EC40E862464268A46A6450002703AA
:10023000196FE1C1315B3324213275701071603563
:100240004A5A2A215A3B0A27042A6F61C2312811CF
:1002500013252211311213112613431213281345AB
:1002600014111326131211311213111325123128F0
:100270000127051F6EE5C19C223424322459488A87
:10028000A09098889890A88824612109634207016A
:1002900027062BEFE1C155282515191335131263D5
:1002A0001211731022433122422223322852161196
:1002B00042151223161319A5B00A0027072CEFE1E7
:1002C000C1552812221533936828242A45D4945006
:1002D00091509150914CC4444C44C4CC44488494B3
:1002E000444C6494C22A0027081BCFE1C1144E2C51
:1002F0005D2534364376707170304325345B2A4C6B
:100300001B0A27091F4E25C2F040742230422444A4
:100310002444C646C64624442444223062F4E040C5
:1003200000270A226DE5C1252126922822248D442A
:100330008445AE24928C4824918990988A4817135A
:10034000177503270B23AE25C213913022BB88CC2F
:1003500024B28AC855444E24F289608C6C44684C9F
:1003600060545CD81100270C30EFE1C12325151231
:100370001312141311131512111216932E24615413
:10038000548945488A2891242322696244328AA8E4
:100390008B898C3A9001270D25AF25C21B3D3B6808
:1003A0003123429124664422CD5084CC54C4C449A4
:1003B0004448B2881407139411A303270E288C25F0
:1003C000C22219221691554844A29988A08898887B
:1003D000A0889888A0889888A0889088A80891B05C
:1003E00018B902270F1DEFE0C27230141116111256
:1003F000731091B3889983889088B088A08319007E
:100400002710298C25C257162315211214111211F9
:10041000131113111211131112111311321311139D
:1004200012912822B310414100271119EFE0C24870
:100430004412141224222111771024222142121472
:100440004A03271215EFE0C238455273103272107A
:1004500074403243523B042713164DE5C11C9B24C4
:1004600030262E2A5950604864446C240027141802
:100470006FE1C11D3D113931373236B46A666E62A3
:10048000D0945812002715196B69C21117313531F4
:10049000B362AA6EAE6A6266C5D4445C04002716D5
:1004A0001FEFE1C11317B5A6C50736075407720F32
:1004B000A40E680E2C5ED4D44C4DC5C50027171E63
:1004C000AC25C2202821252333252138392821278E
:1004D0002225A44A444E425022140027181DCCE580
:1004E000C12058352243333156385827313532240C
:1004F000343235215718120A271926EFE1C1551A4F
:10050000131A91342269442A8B88B33089030AB1C3
:10051000B08B08AB88A411492392C6845601271AD0
:1005200010EFE1C155DAAB83FF83AAD25E01271B2E
:1005300012EFE1C136BC67360735073566C37B0667
:10054000271C15EFE1C155DAABAA83A983A983A9BA
:1005500083A9A6BD02271D0F696DC233B6E6E081EF
:10056000CDD86E00271E20EDE5C1441922182218AF
:10057000225452113A7A6241621422182218221827
:1005800022584904271F28CDE5C173161543315160
:1005900034247120217120217120213454314113E0
:1005A00031111631111631111615760327201CEF63
:1005B000E1C17320583B163525B568E8E01FAD9AB8
:1005C000929A0A9B2D3C9001272122ADE5C1161B72
:1005D0001119137460111213122325954A4D484CBA
:1005E00048C481514C64446C180027221FEFE1C1BC
:1005F000365B5A3B3C271424511272F08024A442EB
:1006000028486E78B6B4760C0027231DEFE1C1367A
:100610005BDA766E2666A224E4E0014948C54CCC3C
:10062000DC6C69DB310027241DEFE1C15579785975
:10063000263323413272F00F4846286466C42A0FDD
:100640002FAB00272520F0E1C1173E5C5B1D2A136C
:1006500024331334717020311334231324195D5B58
:100660003C1E0827261CEFE1C1173D3C5B5A782051
:10067000746071701071607420585A3B3C1D0727DC
:100680002723EFE1C1171D111C111B131A13282575
:100690002429111D2129242518131A131B111C119B
:1006A0001D07272823CEE5C1141D1C111A13272569
:1006B00017932C22282E28222C4446322238322608
:1006C0003022380E002729228F61C2171D111C11FC
:1006D0006663111B33351615972C265588844850B0
:1006E000445444909C0800272A25EFE1C155782006
:1006F000555163615253216B772075207710134356
:100700002152A2E242E680EA40B00A00272B1D8F68
:1007100061C2173D3C76701051533335161537338F
:10072000762055513435242702272C258F61C21796
:100730001D111C1166631134141352121551111638
:100740003212161715521214111511242702272DD3
:10075000288F61C2171D1139B3286822E424266648
:10076000262AA2222C2226222C26554C444C508488
:100770008C44909C0800272E288F61C2171D1139C8
:100780001131B345C481444CC44554444558848A0E
:10079000B0885CC544C40445C84804C98900272FF3
:1007A00028AF21C2173D1B3155721011312123137F
:1007B000423115626711362112263211251231118C
:1007C000142143242702273024B021C2171E111DF3
:1007D000216663123B32551545159726462AA424F7
:1007E0002A822442886A4A4E040027311EAF21C261
:1007F00036BC2E6828826484E4A0EA20EAA08264E1
:10080000842268286E78190027321DAF21C236BCB9
:100810002E68288264844D5594144D05C90845D02E
:1008200050DCF03200273321EFE1C1171E19942A62
:10083000269D4484E065D5C14154E5A144845C4CC7
:10084000AAA094E17100273421EFE1C1171E199489
:100850004A6242EC40EE41D0C141CC81DC03318997
:1008600009A9A094E17100273532EFE1C1171D11EC
:1008700048521421221214221122241211315391B0
:1008800044226A48224422A2662289904884485021
:10089000888AA012C288E83800273619AD25C2160A
:1008A0009C2C6828629B03A90732132B8286C28284
:1008B0009301273728EFE1C11415181528232921A2
:1008C000352221B262D58160E181D4C492110991AF
:1008D00029094919C1A8C0A82000273825EFE1C17E
:1008E00014152823383178747010716073407520A6
:1008F00075407360717010743831282318150427FF
:100900003926EFE1C1172A1222771572127260732D
:1009100040744072701072407440736012721275AD
:100920002712221A07273A32EFE1C114922A2437FC
:10093000211149A2227223123111A2A242ECE8E055
:1009400020E84CA242442462224426225721114925
:1009500062427215920800273B21EFE1C1173DBCAE
:100960006C28686226664A2242745422426A2666CD
:100970006228686C78751C00273C25EFE1C1365B66
:100980005A2633234113731032C2862C2A8C868454
:1009900064E4202686426646ACB4760C00273D26E9
:1009A000EFE1C1365B5A26332341327210134342C2
:1009B00011415747114142137310324221332356DC
:1009C0005A3B06273E26EFE1C1361B131A13361198
:1009D0001331617360F1C026284DD050445091CC42
:1009E0004DC444C55869ED1800273F20CF21C236B9
:1009F0005B7935513171F0E6608E626E484AAAA289
:100A0000E6C0C4C2C4C286090027402FCF21C23627
:100A10001B1319928A24842228229184C88884CCAA
:100A20004D84C4855044455448494C485E844484B0
:100A30004484044504C53001274135EFE1C13648FF
:100A40004393224D48444C8A901089089110890B99
:100A500089200921091A0A2109A108890B91108905
:100A60000891143129426222D2C4301C0327422D3E
:100A7000EFE1C155484155511331331122522261E2
:100A80007320111541131543111571206321522252
:100A90001231331153514541580527432CEFE1C121
:100AA000361B221A22361122311141B2C48422840B
:100AB000CD01CD488848C488C8261411132211637B
:100AC00022A122B16300274426AF21C2171C9176D0
:100AD0004C2413353132211211227173211211224B
:100AE00031323122229988CD46248E0327452CAFFE
:100AF00021C2171C9132622248241335313221124F
:100B00001122115153112112112231323122229915
:100B100008454C4446248E0327462EEFE1C114922B
:100B2000502242B23064244624133531221312116C
:100B300012632B24222446646244443291C9B05289
:100B400022423024110027472BCEE5C1451643939E
:100B500084242A44242E422268F02042E26042E2A9
:100B600020702842222E44242A84242686268C0A99
:100B70000027482EEFE1C155165393A4242A64247C
:100B80002E622268F22062E26062E26062E220721B
:100B90002862222E64242AA42426A626AC0A002732
:100BA0004925EFE1C1365B5A36513151317130126E
:100BB00052511151D622A249C8C1C444C544C55896
:100BC00069ED1800274A29EFE1C1173D2832222498
:100BD00013231692322299CC8CC4C14184CC8C58F8
:100BE00044CA9064323142222382D37100274B27BA
:100BF000EFE1C1173D28322234B14A2444B06CA23F
:100C000062E2E02062A262AC5024446A6291C88829
:100C1000E0741C00274C176B69C221254143C1E6D3
:100C2000AAACEA8682CDD5445C0400274D1CADE910
:100C3000C144272414181328111A11BA54227022FF
:100C4000504688EA8E0800274E1DAD25C2F020E2EE
:100C500062A6664D4DCCD581CC81D44D4CCD9A9AAF
:100C600089070701274F148C6DC27030121812C803
:100C70000F0F0E420E460E062750118C6DC27230B9
:100C800072F040903F0C3918012751148C6DC270DE
:100C900030122811C80F0F0E220E480E06275211CF
:100CA0008C6DC2723071F060903F943818012753F8
:100CB00017E9ADC1337441524543443426A71E425F
:100CC0008C8A4C080027542509AEC15213151132E5
:100CD0002211139128222A24282428242A222C2273
:100CE0006C1E602A2628266A060027551CE7F1C1DB
:100CF0003223A1666A4622264442262228226876AA
:100D000026494CCC0800275619AD25C2163B593947
:100D10001793666AA2A6626A26BBC9CAD9300027A1
:100D20005710C439C22171F06042443311090027C1
:100D30005809E2FDC1F00301275909E4F9C1F03F68
:100D400020275A0AE8F1C1F0FF7F10275B114731D5
:100D5000C3333223556271F0A2660400275C114749
:100D600031C3325371F0C2A44A66640600275D1A8B
:100D70004F21C33335323523265553E2E2C1C5C175
:100D8000C5454DCDD40800275E1A4F21C33235D357
:100D9000E2C1C5C1C58589494D9598CCD4C8D40C4C
:100DA00000275F11472DC2325371F0C2A44A666416
:100DB000060027601A4F21C23235D3E2C1C5C1C532
:100DC0008589494D9598CCD4C8D40C0027611FCE95
:100DD000E5C11A1D764071406214631464137610E5
:100DE0001D24264315442425335707276216E9EDB1
:100DF000C1337471F0C0E2682E301E62AAA8D50C0F
:100E000000276314A92DC2B1E2E081C5D15C3CC4C6
:100E10005451AB190027641BAFE1C14243636171B8
:100E2000F00713072607360754077297B5D37100EA
:100E3000276521EDE5C13269761075207430734065
:100E40007340734071407140723073207410663883
:100E50000827661BACE9C15125642637327330720E
:100E600030723073106547292A1238032767218DA5
:100E700029C2101D32175113126113117112217101
:100E80005071101172136214521533170B27680F2B
:100E900084EDA113122221A23732410127690E8469
:100EA000E9A11014A3442F44D200276A0F85E9A1B9
:100EB00023223231B237334202276B0E85E9A1205B
:100EC00024B3642F46D400276C1285E9A123222382
:100ED000222322232423242324276D1385E9A12000
:100EE000242324232423222322232203276E128651
:100EF000E9A1333233323332333433343334276F6E
:100F00001386E5A130343334333433323332333261
:100F10000327701287E5A1434243424342434443BF
:100F200044434427711387E1A1404443444344436D
:100F300042434243420327720B83EDA1129124BF27
:100F40004927730C83E9A1109324BF480227741327
:100F5000A6A5A14231232425243225242324344468
:100F6000277514A6A5A14034A446486A44484A48B7
:100F700066820400277624EFE1C15578207540632E
:100F80006152625111717071707170717071E18490
:100F90008AE680EA40B00A00277727EFE1C155785A
:100FA000207540D3846282A262E2E0E2C0E2C0E245
:100FB000C0E22082E220848AE680EA40B00A00276C
:100FC0007828EFE1C15578207540D3846282A2620F
:100FD000E2E0E2A0E4E020E26062A2826282A4A6F3
:100FE000E680EA40B00A00277926EFE1C155782073
:100FF000754073516252611171402171303171300D
:1010000076606171517251734075205805277A26B8
:10101000EFE1C15578207540434542711051717020
:101020007170747010717051413141525373407539
:10103000205805277B26EFE1C1557820754063D203
:10104000E2A2E2E0E2E0E88062E26062A282628222
:10105000A4A6E680EA40B00A00277C25EFE1C1554E
:101060007820754043457210417120716071707134
:1010700070716071E1C4C2E680EA40B00A00277D69
:1010800029EFE1C15578207540D3846282A262E2E3
:101090006062E280E68062E26062A2826282A4A66E
:1010A000E680EA40B00A00277E26EFE1C1557820AD
:1010B0007540D3846282A262E26062E280E8E0E28C
:1010C000E0A2E2A2A4C4E680EA40B00A00277F2C96
:1010D000EFE1C155782075407360423132412221E1
:1010E0006111A1E22042C541848A8308151352216F
:1010F000230736075407825500278028EFE1C155A2
:101100002825151913161412251411352526252600
:1011100025262526151125141225141319A5B00A04
:1011200000278126EFE1C155282515191353131205
:10113000721211A3A18CD890D0988C6044C84992A7
:101140009398C828855500278224EFE1C1552825AA
:10115000151913531312721211A3A18CD890A08CDD
:1011600036112127696A524629AC02278328EFE10C
:10117000C155282515191336928A24224A42464819
:101180004446270722220722117122E9446222A342
:10119000145601278424EFE1C1552825151913722F
:1011A00092E424224650C648E64650469B889093D7
:1011B000343529A3145601278523EFE1C15528258D
:1011C0001519135313127212112328632473A36F7A
:1011D00022424ED2D4A48C525805278627EFE1C173
:1011E0005528251519137292E42422504650464E74
:1011F000486A4A482E22462C24462C26324A61153B
:1012000000278722EFE1C155282515191353131222
:10121000721211A38F8A64F42622E4244D4DCA2849
:10122000855500278823EFE1C1552825151913534B
:101230001312721211A36F6E846C046522424ED297
:10124000D4A48C52580527892FEFE1C155282515C4
:101250001993642489444592092532124A642494DE
:10126000C8482891915012112251111222321213A2
:1012700019A5B00A00278A23EFE1C15578207540EF
:101280007351625261736072607260726062615227
:101290006252734075205805278B25EFE1C15578C0
:1012A000207540434532374132726072407330736B
:1012B00040722031373237734075205805278C250E
:1012C000EFE1C155782075404345323741327260B5
:1012D000724073707210324231374245734075204C
:1012E0005805278D26EFE1C155782075407333628C
:1012F00034611272202272103272693971103272A6
:101300001032734075205805278E24EFE1C15578BF
:101310002075403337323741726076207760721023
:10132000324231374245734075205805278F25EFEB
:10133000E1C15578207540434532374172607620CF
:10134000771032721032423137424573407520585F
:1013500005279025EFE1C1557820754033373237A6
:10136000712072607250724073407210417242720A
:10137000734075205805279127EFE1C155782075F6
:10138000404345323741327210327220752032723A
:101390001032423137424573407520580527922557
:1013A000EFE1C15578207540434532374132721024
:1013B0003272107720766042313742457340752093
:1013C000580527932AEFE1C1557820754043213312
:1013D0003212253113127292E424C94992932413D4
:1013E000235122233233075407825500279414AF28
:1013F00021C263EACD81C9C1C5C1071107863E0379
:1014000027950F6B69C234B8D1C10745831B0127EB
:1014100096096D64C3F007042797116D65C235BA4C
:101420001EE6E007F430A3AB002798136B69C212E5
:1014300039574748122612384865381B2799152F07
:10144000A1C2172E3625654273F084664A583A0EBB
:1014500000279A146B29C21A37654737261244129F
:101460004356371908279B132FA1C2160F103E4D64
:10147000737010483A1C1D08279C15AF21C2284CD8
:10148000DBE6C0E2E00F260E2C9B124B01279D15D8
:101490006F61C21B1E2E2D727071F041B0B4747852
:1014A0000C00279E19AF21C21B1E2E2D7270717069
:1014B00071F041C4C1B1B474780C00279F162FA1FC
:1014C000C21A2E3D129185452E0E22B2B01D960EE7
:1014D0000227A01A2FA1C21A2E13914549441616AD
:1014E000B93888C8C22217C5D2410027A1132FA13D
:1014F000C21A2E3D727071F041ECB074100027A238
:101500001EEEE5C1103D1C211A23192417261627AB
:10151000753073307320756648391B0D27A31EEE96
:10152000E5C1103D4C6A797720763075301327136A
:1015300026152416231821391B0D27A41BEEE5C1FF
:10154000103D4C6A79772076307530733073207592
:101550006648391B0D27A5140FE1C2101E1A232956
:101560007360727072502C1D0327A6140FA1C21B4A
:101570002E7450727071602129121A130E27A7144D
:10158000A735C21316265262617160615125151686
:101590000327A8152FA1C2191E7540745073F0C0FF
:1015A000E6803A3C0A0027A9162EA5C2283C7320E3
:1015B00021122A113B2A7120213A2B0427AA162E28
:1015C000A5C2283C733011221A213B1A7130113AFE
:1015D0002B0427AB1BAFE1C11C2D1C121A13731572
:1015E000112C7C30734052165167492B0927AC1CD3
:1015F000AF21C2244D6B1A5173527110532C111C20
:10160000721519131B122C1E0227AD1C8F21C21834
:101610002E752011141A131B121C114B3A71203114
:1016200073403B1D0527AE1C8F61C2193D75407389
:101630002031123A114B1C111B121A7320112C1D50
:101640000627AF1D9021C2190F201E1174301214ED
:101650001B131C127B60327220314B3C1E0527B0DD
:1016600011C7E4A2202332932426242666040027EF
:10167000B11D9061C21A3E4D742031723032123B5E
:10168000111C121B7230121C112D1E0627B21EEEE9
:10169000E5C15477206441724271333C2C1D2C7B90
:1016A0003033714262417420570527B315EFE0C211
:1016B00070199228491AA183926C44320A3904277E
:1016C000B4146B69C2132A396556471416131721CF
:1016D00038476527B511AE24C350165325735051B2
:1016E0002551160227B6156B29C2654738172116F2
:1016F00013421451653828190727B7146B69C214AF
:101700002A39387413611362215647567427B81763
:101710002FA1C21A6415642474507450725062244C
:1017200062151D0427B9156B29C2745647566221EC
:1017300061731013343828190627BA196F61C2294A
:101740004C4B443572102471F04048846A9496588A
:10175000080027BB152FA1C21926354543634372E4
:10176000F08623A9E9280027BC15EFE0C2501654E3
:1017700025543474505234522552160327BD192F64
:10178000A1C250246433644273607360716062422A
:10179000623353240427BE1A2FA1C216131B131B36
:1017A000137230130F7040131913191319130427F0
:1017B000BF1AD0E0C23043B3682A26242628262444
:1017C00026282624266A68060027C00FC624A210F1
:1017D000151311922246C80027C11F8B29C2151963
:1017E00011181117131613159228229B9088901424
:1017F0003111494A240F0A27C20AC524A212949320
:101800000227C3140A6DC272101118261115221571
:101810002226127A1027C4150A6DC270101A2226C9
:101820001225121521161871100227C5114529A27B
:101830003111239328262826286A0027C612452915
:10184000A231112313111415141514310227C713D3
:101850000725A210251591494C8AA088A8B0180028
:1018600027C8160E65C210761015181319131A1210
:101870001A121B121A7327C9170E65C27016171594
:101880001813191319121A12191273130327CA0DF8
:101890004329A21192C544482E0027CB0A0871C2E1
:1018A0001796DF0127CC12CCA9C170601C1B1C9BB2
:1018B000A7B1A1B1B10027CD090871C210981F27A7
:1018C000CE206B2DC270502914241424131123131D
:1018D00011231213221213221115211115715027F1
:1018E000CF206B2DC270501115211115211213221A
:1018F00012132213112313112314241424795027B3
:10190000D0162931C214171115932A222645544C9A
:10191000AA88B8200027D1120725A2131615111482
:10192000119324222BA90027D21B492DC210132367
:101930001323132313231323132313239322244D3D
:10194000090027D30BC624A2952455D40127D40C13
:10195000C624A270952455140027D51C4C29C230EA
:1019600018222612111411923732213132217911A5
:10197000141122561827D61C4C29C21058261211B1
:101980001411923732213132217911141122261289
:101990003827D7214E25C2303822261411141114AD
:1019A00092518C4C508C4C5048461141114162224E
:1019B000830327D80C892DC21498FFE8400027D94B
:1019C0000D892DC270201498FF080027DA15EDA4A8
:1019D000C215111A1165611511656115111A1105EC
:1019E00027DB15EDA4C215111A111A116561151125
:1019F0001A111A110527DC0FACA8C231181317737E
:101A00002013380827DD0EEE64C2109DFAE0203A5C
:101A1000350027DE0CEE64C29DFAE0203A0327DF92
:101A20000F4525A231112313311394930227E01996
:101A30006721A21315111411932426E222262426CD
:101A4000455044540C0027E11FAD25C2161B111A46
:101A500011191317152427111B21271415171319F2
:101A6000111A111B0627E21FAF21C2181D111C11EC
:101A70001B1319152627311B2327161519131B11A4
:101A80001C111D0627E31FAF25C2161D111C111BBB
:101A90001319152627133B2127161519131B111C83
:101AA000111D0827E41FAF21C27350131A131A1314
:101AB0001A131A135A1A131A131A131A131A131A77
:101AC000735027E520AF25C27050131A131A131A4A
:101AD000131A131A135A1A131A131A131A131A73FE
:101AE000500327E61DA529A260111211121112112F
:101AF0001211121112111211121112111211522778
:101B0000E71DA525A2501211121112111211121166
:101B100012111211121112111211126127E81284FE
:101B200029A213121312131213141314131427E9F6
:101B3000138429A210141314131413121312131262
:101B40000327EA1E8625A213111211131112111375
:101B5000111211131114111311141113111411274F
:101B6000EB1F8625A2101114111311141113111457
:101B7000111311121113111211131112110327EC69
:101B80000F84EDA113122291FF1399A00027ED10ED
:101B900084E5A11014231291FF85481A0027EE0B4B
:101BA00083F1A1129124BF4927EF0C83E5A1109383
:101BB00024BF480227F0218B29C2151911272115AE
:101BC000918D440A897C129151444611194564143F
:101BD000915144260027F1228B29C212915144468B
:101BE00011194564149151442611792191422622FC
:101BF0002B09B988C8280027F2194C29C2451714A7
:101C000015161328912C622E2430342A288E0600B3
:101C100027F3194C29C2431714151613181216115D
:101C200021371118131C14470527F417EFE0C236AB
:101C30001B91242C248B8383A090CC2292048E01B0
:101C400027F50FAF24C3121D7D7010110F100C2744
:101C5000F60FAF20C31C0F107170109D040027F702
:101C600011AE24C31218131A7170111A1318022717
:101C7000F812EFE0C2131D7D70100FF0241E201625
:101C80000027F911EFE0C21B0F1072700FF0203A1D
:101C90000D0027FA15EEE4C2131615187350111C27
:101CA0007150131815160327FB10AE24C3121A1116
:101CB0007B7010111B121A27FC11AE24C3101A12CC
:101CC0001B7170101B111A0227FD13EEE4C21319C9
:101CD000121A71701C7160121A131927FE14EEE4A7
:101CE000C21019131A7260117C70111A121903278D
:101CF000FF13AF20C31C149324422217443141D157
:101D0000210028000E4569A210131A131A131A1382
:101D10000000640003020505040506141400FC0B12
:101D2000FC0CFD01D504690D21200600202C0121A9
:101D30000982252CF1411E022208A4E83D11790AEE
:101D4000231EEA65631BC5511AC5511C45C3218B6F
:101D5000E2288EB2E11095A3384AA3384A0124162E
:101D6000C5E543952D152551122513B544499444D5
:101D7000A96C1100251CABE573232791165586A885
:101D800056AA6A399443991AD54AC5A81825B102AA
:101D9000261C8A256CA703511CC5519CE480344441
:101DA0005A258BB224AB645A654816002707A1E870
:101DB000253108280CE4693317D5A2AC8F5958296E
:101DC0000DE4653311D6C2AC4F5954032A0DE760B8
:101DD0003D57AAB46D49532D032B1229E95B992372
:101DE000399223E170CC911CC991102C09A2642B6B
:101DF000312489022D0724E83C31042E0742242C8B
:101E000031042F0E052A43590BDBC2B6B02D0C014D
:101E1000300C65253C332535BF25A505310A6525E0
:101E20003C158DFD6910320F65253CB364B6300B4F
:101E3000B352120D03330F65253CB3645A58524315
:101E40004D4B1600341267254CA78A4998645124DB
:101E500045C310C6C541351165253C910D4A180E84
:101E60008914869A144900360F65253C2555B270B1
:101E70004832B7A4B400370E862544910E43A88596
:101E80006931ED06380E65253CB364B6A4B4646EC2
:101E9000C902391065253C332535B76408B3248A57
:101EA00024003A09E22C3C31C443003B0B42652B31
:101EB00031C4439228003C092565349975ED003DF5
:101EC0000BAAA86CF190731A0E013E092565349196
:101ED00076EB083F0D852544B3645A63A613350994
:101EE000401E8A256437A46116494914294A982856
:101EF00061A28489122652A494142DD50609411892
:101F00006B215C9B633994E4481DA903599CC583EC
:101F10005A4CA3211B0242186A21547110D32C8EF3
:101F2000E228CD8631CDE2288ED2641824004318F1
:101F3000692554372451A8C43AA0233992233990F3
:101F4000C451180E110044186A21547148432DCD14
:101F5000E2288EE2288EE228CD426518320045162E
:101F60006A2554F196666956C9AA839A45B5A89A16
:101F7000A5C97001461669254CF19446699425510E
:101F8000160E621666618EC4830847196A25543797
:101F9000245928C5490E24399443E9A003519CA52E
:101FA000E1B000481A6B255C3128839486699886D5
:101FB00069380C611AA6611AA6D1A00C02490B65FA
:101FC000252C3148617F1A044A0C66253433686930
:101FD0003F9536004B196B255C3148439486D52CD0
:101FE0008E722099A5384CC3B4344843004C16680F
:101FF000214431A8399003399003391046611446C1
:10200000D970084D206E257431C443248BB2988456
:10201000499884499864511835468D9916665A3402
:1020200028CA204E1B6B255CB10D92188A952C4C4A
:10203000B2302A66499825612886D2A045004F17FC
:102040006A255437A461162739A2233AA2233A52AB
:10205000CEC274C800501669254C71D042298DD269
:102060002894862D47722447E24104511CCA6553C7
:1020700037A461162739A2233AA2233A529932494A
:102080001D722887EA800252166B255C7188C3B4E2
:102090009886D541CED4300DD3301BB401530E6693
:1020A000253C338CE6588E45715800541669254CF2
:1020B000F190655AA61573244772244772241E2492
:1020C0000055186B255C3128839486699886699839
:1020D00086699886692D07460056196B255C316420
:1020E000439486692DCEE22C07921CA9237528C73C
:1020F0005200571F7025843164D310856251AC455E
:10210000591A3547CD517312263920EA88A8237110
:1021100008581B6B255C31444398C5518ED4111D62
:10212000CBA12407941CC8D2D2900D0159196B255C
:102130005C31644394D6E22C07921CD9A11CCBB12C
:102140001CCB9141035A1267253CF196844916A78E
:10215000B5284BC2241B0E5B0A03262B3144FD3FDE
:102160000D5C0E052A4311A6616BD81AB686015D77
:102170000A03222B31F5FF34045E09656436952D80
:1021800059005F072BA463F1206009832C361149A5
:102190005900610FE6243C33656934245992458324
:1021A00000621386253CA1761DA22CC9922CC992EF
:1021B0002C191200630BE52434B364625BB2006433
:1021C0001286253CA7761A922CC9922CC9922C1AF9
:1021D00004650CE52434B364C310D69205660E85FD
:1021E0002534B54449581BA2B0DB04671467254366
:1021F0003528599445593464F1A0A4D66450006838
:102200001187254421771EB2521665511665C90102
:10221000690B632524A1E880D4CB006A0CC4612B30
:1022200065C7B4BE4943026B1187254421F73224A8
:1022300051968463A245D1326C0983252421F55F30
:10224000066D10EB246431285B5356CA4A5929ABFA
:102250003C6E0FE724443168A52CCAA22CCA920315
:102260006F0AE52434B364DE9205701346653B3192
:102270004859922559922559324469B8017112463C
:10228000653B33245992255992255934A4C50172CE
:102290000CE52434A1444AB16D4800730CE52434A4
:1022A0003368EAAA0D0A00740D46253C95D6062D22
:1022B0006D6A53007510E724442149599445599497
:1022C00045593608760DE8244C314DC5288C52D935
:1022D000067711EB205CB19C1A93C6A4316955E4D2
:1022E0002C03780CE8244C314D55D91A4507791048
:1022F000486543314DC5288C52D91C46E10A7A0DF8
:10230000E52434714AA2AC9444C3007B0C05263307
:1023100027853DA9615F057C08012A1BF143007DEB
:102320000D05222BA186BD4A619F34007E0A65649B
:10233000461329899400A00600202C01A10A826579
:102340002B31C4C38300A21265A53B17464B4589B8
:10235000922889A4640A3300A31688254CAB4659F9
:102360003B900E6A0EE4409A648A94481200A410CE
:10237000E7E44C9126839445599445839206A51829
:102380006B216431644394D672204987EB0EC5C338
:1023900039C77264D000A609012A1B71888621A75B
:1023A00010A42534A3445AA844A644CCA44401A8AC
:1023B0000945E436A10C8900A91949E55435686935
:1023C000120D8992254A9628A99225D294A4D92043
:1023D00001AA0CC4E42D232643940C4300AB0EE762
:1023E000244C1735296E8A16855100AC0786A44403
:1023F000716DAD0623E02C31AE1749E5543568699F
:10240000920C9154912AD2245594A5351B2400AFE7
:102410000725E43E3108B00A842836A34452A200BE
:10242000B10E27694C17D786218BEBD83004B20B3D
:10243000E4A42DA34459A93404B30CE4A42DA3446B
:1024400059144A8902B40983EC3695282500B5133E
:1024500047654391455994455994458A254AE23246
:1024600000B61FE7254335284B3224C99024431278
:102470002D991226611226611226611226619200A0
:10248000B7074268253104B80863683B930D01B96A
:1024900009E3A42593485D06BA0BC4E42DA344A622
:1024A000441902BB0EE72444118551A6688A5337AC
:1024B00000BC196B256493435A9CC5599C55964C96
:1024C0008D923489D264D0D2301CBD166B256493B2
:1024D000435A9CC5599CA54BA646C534EC9A0D01A0
:1024E000BE1C6C256CA343ED489403598E445912CD
:1024F00025992455E2248A93414C8B03BF0E8565B0
:1025000043A5E9442DCC8A59B200C01E0B225C9928
:10251000633A96833939C77228C9913A5207B2385B
:102520008B07B59846433604C11E0B225C9D433A87
:102530009443394B8EE550922375A40E6471160FA7
:102540006A318D866C08C21DEB215C9B433B90E594
:10255000D41CCBA12447EA481DC8E22C1ED4621A21
:102560000DD910C31DEB215C19C54939CAC939966B
:1025700043498ED4913A90C5593CA8C5341AB2212A
:10258000C41CCB215CA7C88A4ECDB11C4A72A48E54
:10259000D4812CCEE2412DA6D1900D01C51FEB2197
:1025A0005CAB23510E4439A243399643498ED491F2
:1025B0003A90C5593CA8C5341AB221C6206E217C78
:1025C000395C93504DD24A968451160F831C655145
:1025D0001665512DCDAAC9900C8302C71BC965533E
:1025E000372451A8C43AA0233992233990C45118F2
:1025F0000E710EC51B00C81C0A225C97433A9463F7
:1026000039E12DCDD2AC925507358B6A51354B93BC
:10261000E102C91D0A225C9B233A92233969B8A5BD
:10262000599A55B2EAA066512DAA6669325C00CA71
:102630001BEA215C99237396C3C32DCDD2AC92556E
:1026400007358B6A51354B93E102CB1BCA215CA540
:10265000A88A0E0FB7344BB34A561DD42CAA45D5C1
:102660002C4D860B00CC0E052634138A693C48613C
:102670007F1A04CD0E0526349769756490C2FE3426
:1026800008CE0EE52534952D593A48617F1A04CFBE
:102690000EC52534A10C893A48617F1A04D0186A06
:1026A000215C7148432DCDE2281EC6288EE228CD3C
:1026B0004265183200D120EB216419C54939CA2975
:1026C000DB2089A158C9C2240BA3629684591286C3
:1026D00062280D5A04D21D0A266497433A9463393E
:1026E0006D48C32C4E72444774444774A49C85E9DA
:1026F0009001D31D0A26649D233A9223397148C361
:102700002C4E72444774444774A49C85E99001D4CC
:102710001CEA256499237396938634CCE22447748B
:102720004447744447CA59980E1900D51CEA2564D9
:1027300017A54935CA69431A667192233AA2233A0A
:10274000A223E52C4C870CD61BCA2564A5A88A4E6B
:102750001AD2308B931CD1111DD1111D2967613AFA
:102760006400D70DE7244C91265925AD649534D8E3
:1027700019AAE5638F8483580B936A24666EA1942B
:1027800026C52C0C07314700D91E0B266499633AE5
:10279000968339655006290DD3300DD3300DD330D3
:1027A0000DD35A0E8C00DA1E0B26649D433A9443D7
:1027B000396D5006290DD3300DD3300DD3300DD3E4
:1027C0005A0E8C00DB1DEB25649B433B90E5844156
:1027D00019A4344CC3344CC3344CC3344C6B39301F
:1027E00002DC1CCB2564A7C88A4E1894414AC33426
:1027F0004CC3344CC3344CC3B496032300DD1F0BCD
:1028000022649D433A9443396DC88628ADC5590E5C
:102810002439B2433996633996238306DE1569213C
:102820005431C8393288B5344AA3340AB3418C07CD
:1028300011DF1186253CA545FD626A4BB2244BB2DF
:102840004501E01286253C93AA710E4D591A0D4997
:102850009664D120E11286253C178A7570CAD26829
:1028600048B2248B0601E21266253C154E598E4C67
:10287000591A0D499664D120E31366253C13259D12
:102880007268CAD26848B2248B0601E41146253C1E
:10289000A1B823539646439225593408E51266257C
:1028A0003CA5456DDA94A5D1906449160D02E61257
:1028B000EA245C332D99160ECB906669A625D302C7
:1028C000E70D456533B364625BB2A5D102E81085BC
:1028D0002534138A690E2CD93084B56401E910853A
:1028E000253497697568C98621AC250B00EA0F6508
:1028F0002534952D59BC64C310D69205EB0F4525A0
:1029000034A10C89BC64C310D69205EC0B8421243D
:10291000916961ACF534ED0B842524174965ADA7A9
:1029200005EE0C65212C952D592CF6B600EF0C45C3
:102930002134A10C892CF6B600F00E852534535AAB
:10294000D6301A346FC902F11367254413554A75FE
:102950006CD04A59944559942507F20E85253413B5
:102960008A690E2C99B76401F30E85253497697531
:1029700068C9BC250B00F40D652534952D59BC6440
:10298000DE9205F50F65253413298994034BE62D56
:102990005900F60D452534A10C89BC64DE9205F77B
:1029A0000EE9245C9923393CDCE11C0901F812652D
:1029B000A53399454BB4244AA2245332652100F92A
:1029C0001587254413CB3990639294455994455902
:1029D00094658300FA1387254499AA755092B2280A
:1029E0008BB2288BB26C10FB13672544976E75442D
:1029F00092B2288BB2288BB26C10FC13472544632B
:102A000052744492B2288BB2288BB26C10FD13E83A
:102A100065431BCB75749A8A5118A5B2398CC215BF
:102A2000FE15E6653BA1761DA22CC9922CC9922CFD
:102A300019A234DC00FF13A86543A5688A0E9D8A9D
:102A40005118A5B2398CC21500000004FFFF20A068
:102A50001988295CA56491144639100D5B9444E9EA
:102A6000A0E6400E44D92020A12709AA639BC449AF
:102A70009AA4431225C912258994445292454916B5
:102A80002559524B942C4AA26CD09238490120A26D
:102A90001A692964372451A8C43A202951A6D4C2FE
:102AA000AC1265511285430420A317692154F19497
:102AB00046699403839A03839A2339120F220020D4
:102AC000A41688295CAB4659EBA0A6839A036992A9
:102AD000295222490020A51B6BA9730FE458362800
:102AE0005B26D54A5929D2A2484B8621D9722C0798
:102AF00020A61B6B2974B10D92188A952C1A0E52C0
:102B0000D37090B2240CC5501AB40820A72572299E
:102B1000A4712764518E9572AC9463D9300D51160F
:102B200065A5212B17B7380AA338D286551912008C
:102B300020A8226F299471C8B13087D21C49732410
:102B40008D86288CB268D0E24CDBC2380AA36CD8E0
:102B5000860520A92270299C3164D310856251AC6E
:102B60004559347CC8A2B6E1439684490E883A227E
:102B7000EA481C0220AA152A296C710CB5A82495D4
:102B8000A4925492D22CD4860520AB17C6A94BA789
:102B9000468398464354C9922CC9A2D2A00383000D
:102BA00020AC1A6B29743B2461A8C5510E3C8439B2
:102BB000320C710E6471581E220020AD1768295422
:102BC000312D619495C2241C862849A3302B26D32D
:102BD0000020AE1769295CF190655AA62545590970
:102BE00013594E72241E240020AF2A0F6A8B0FE85F
:102BF000680E0E3B12653916E6489A23690EC439F1
:102C000010E7401A496B12299A14DD121DCCE19C81
:102C100090022103218F258CB3835938245A718B5C
:102C2000E264CA813827E4849C90033910E748980D
:102C30006343042109208F258CB38359321CB2AA27
:102C4000564DC62CC9912CC7061DAB63752C27E4C5
:102C5000E8200221261969255C35686992033AA0AB
:102C6000033A90A4519A95922C19B201219010AB7D
:102C70002465954339341C941CCC110021910C65BA
:102C80006534952D4D613F01219210AB24658FE491
:102C900060321C742887220021930D65653415F677
:102CA0005352D92200219411AB2465956639900CBA
:102CB000072507B2340221950F656534952D4D61C6
:102CC000A7A4B2450021961429655431A43A90C4B2
:102CD000510EE5500EE5500E052197152965543B20
:102CE000E4809CA4519803399003399023002198E3
:102CF000132965549143399443399443E52407D407
:102D0000212199152965548FE4400EE4400E845129
:102D10009AC43A30A400219A10AB246595666936AE
:102D20001C94308E5200219B10AB24651BC5613270
:102D30001CB4344B2300219C0F8C646D31E4883A21
:102D40002559255A03219D0E8C646D8F0CD1AA64E0
:102D500015750A219E11AB246595E44092030F4A34
:102D60001D4A6200219F0E656534952D2D4B53D869
:102D7000130021A012AB24659DE450920C071D485E
:102D80007220890021A10E65653415F6945496963B
:102D90002D0221A20FAB2465152BA9340C622AC683
:102DA0000221A310AB246521876A380C929AC811BE
:102DB0000021A414EBE4648F453990E4C8F0922319
:102DC000510EE4580021A50E676544976E4931EE17
:102DD000DB300421A614EBE46491633910E548323A
:102DE000BC237520CA310021A70E67654471C8E273
:102DF0003E26B5350321A810676544976E4931EE2C
:102E000098D4A6610821A913EB24650FEC60940304
:102E1000498E0C072907730421AA14EB2465B30318
:102E2000399603518E44C3218772280221AB14EBDB
:102E300024650FEC40166595301B0E521867210073
:102E400021AC13EB2465B303599C95B2301A0E6183
:102E5000358B0021AD12AC246D154959D4B244C94B
:102E6000524CB2380221AE12AC246D152659982569
:102E7000C34B166649180121AF0F64652C576A19B8
:102E80009228E9220D0121B00D66653C1586C3929A
:102E900045D53E21B10F66653C1727C3902551B536
:102EA000570021B20E66653CDBA74A360C499C01EF
:102EB00021B30D66653C91F6A9960C630921B40E09
:102EC000C8A44C710772204D8A730421B50E0665A3
:102ED0003CDB54C9862189330021B6150B655C396A
:102EE000A8B51C887220CA01A59AEC508E0021B7A3
:102EF000160B655C35A8B51C887220CA81284DEA7E
:102F0000C00E450021B816696554F10E0DA90E24B6
:102F10007194433994433994430121B920AC256C11
:102F20009183518ED4A1E121C9A13A92633912E56E
:102F300050323CE4509223510E0621BA13EAA45CAD
:102F40003D24A19426D5A40E446938680021BB1401
:102F5000EAA45C31E488182569524D72204AC341C5
:102F60000221D012EBE464974339341C7470384466
:102F700039980321D117676544972699A2744AC2EC
:102F8000244CC2244CC2244C220021D213EBE46412
:102F90000FE460341C727038E8500E650021D317BE
:102FA0006765449584499884499884499844498B35
:102FB0002D49330021D414ECE46417A671361C9219
:102FC0001C4B864316A7610621D5178725449726F3
:102FD00099A2744AC2244CC2244A5A6C499A0121CB
:102FE000D6164A655C31A8519CA55A98647116673B
:102FF0007116E7580421D7164A655C3BC8519A857B
:10300000995689B2300BB31CC9911C21D8164A6558
:103010005C95637116677116674998A9591CA58359
:103020000021D9184A655C0FE4488E646116665128
:1030300092655A98A5513CA80021E6182CA56C99D8
:10304000633A940C8392433A96E4506518341DCC4D
:103050000121E7198965549903499A55936DCAC2AC
:103060002CCCC22CCCC22C1C240021E8192CA56C21
:103070000FE4A0360C4A9443498EE950320C4A0EB4
:10308000E9580821E919896554358859988559986E
:1030900085599845DB9266D52407420025A00D6B23
:1030A0006974F1FFFFFFFF1F0225A1166B6974F120
:1030B0001DD2211DD2211DD2211DD2211D1A1E2556
:1030C000A21C6B6974350C590E2439A4433AA443ED
:1030D0003AA4433A94E440360C110025A3216B69CD
:1030E00074F11D528621518621518621518621512C
:1030F0008621518621518621D1A1E10125A4176B9A
:103100006974F11D1A1E726878C8A1E1218786874B
:103110001C1A1E25A51A6B6974F1A58BD245E9A26C
:103120007451BA285D942E4A17A5CBF00025A61934
:103130006B6974F1A5CBF09074191E922EC343D223
:10314000657848BA0C0F25A71D6B6974F1212A29EF
:1031500051452A0D5149892A5269884A4A54914A4F
:10316000C3430025A81A6B6974F1A9B44495A92436
:103170009596A83295A4D21255A6D2F00025A91A88
:103180006B6974F1216959BA2C2D4B97A565E9B289
:10319000B42C5D9696E12125AA0AE7EC64F1FF1FA5
:1031A0000225AB0CE7EC647150BD0E830025AC0A20
:1031B000CDE884F1FFFF7F25AD10CDE884F1410714
:1031C0007550077570781025AE0AA6A94BF1FFFF60
:1031D0007F25AF0CA6A94B7108FD8FC31025B01633
:1031E000D0E89C373C44C343363C44C343363C445C
:1031F000C3430625B115D0E89C373C443998E560B7
:103200009483590E46C3430625B21A8B69749B6397
:1032100039B4233B30C8833A0CE13064C369B80C3D
:103220007F0825B31B8B69749B633994E4481DC8E0
:10323000E22C2DA6590E443990E4D0F00025B40FAD
:10324000076D6417A7E3364883323C0825B510079D
:103250006D6417A7499864A52C49874125B61C6C55
:10326000697CA163438E0CF33088C3211AFE100DD4
:103270008338CC438EE8180025B71B6C697CA163AA
:10328000898E64722AE68094433B20A56226273A01
:10329000A2630025B810E86C6C210FE1300D0FD24D
:1032A00010CA0025B910E86C6C21276226A59B94F2
:1032B00088320025BA13EC687CA163C33C1CA2E1F0
:1032C0000FD130EB180025BB15EC687CA163C91049
:1032D000A7439443EB102543AC630025BC1A8B69CC
:1032E00074F10FC9701A6EC3100E433AC8830EEC06
:1032F000C80EE5580A25BD1B8B6974F11D4A722062
:10330000CA812C0DD35A9CE54092237528C75200E0
:1033100025BE0F076D64F14119A4411BD738032561
:10332000BF11076D647150932CCA2A6192C61900AF
:1033300025C01B6C697C8FE9C8100FE33048C31FA0
:10334000A2E1100E833CECC890630225C11A6C699F
:103350007C8FE988126BA11AE9C00E453A10AAB118
:1033600096234A8E0925C20FE86C6C2D0ED1F020F1
:103370000DE3100B25C30FE86C6C2D2A91B6465A4D
:10338000A8C40225C412EC687C8FC9C334FC211A7E
:103390000EF1B0630225C514EC687C8FC943120D91
:1033A000E90E45431A0F498E0925C61A6B69749BAD
:1033B000433B30A8C3900D97E1A00CB76148071DAF
:1033C000D8A11425C71A6B69749B43490E64692DF3
:1033D00007921C4A72204B6B3990E4500A25C81D95
:1033E0006B69749B43490E6469548BA6241AA42408
:1033F0009AB2A89AE5409243290025C91C6B6974CA
:103400003788AA940349B64983240D923448DA9642
:10341000E440A48A830625CA16872544972661922C
:1034200095B22455932CCA2A6192660025CB1A6B5B
:1034300069743788AA9403490EE9900EE9900E2525
:103440003910A9E2A00125CC176B697439A7590E70
:10345000E4680EE9900EE5680E64693C0225CD1D16
:103460006B697437884A45522A4A2F4A17A58BD26E
:1034700045E945A9484A451C340025CE1C6B6974B2
:103480003788AA940349B649592465919445DA9638
:10349000E440A48A830625CF156B69743788C36915
:1034A000B80CFFFF43329C86E3A00125D01C6B695A
:1034B00074378843260D6132A8C33AACC33AACC90D
:1034C000104643260E1A0025D11C6B69743788DA22
:1034D000108543920EEBB00EEBB00E4A3844DA1072
:1034E0000E1A0025D2196B69743788C369B80C7F2E
:1034F000D0211DD2A1240722551C340025D3196BDD
:1035000069743788AA9403490EE9900E0D7F50869E
:10351000D3701C340025D41D6B69743788D22065A4
:1035200083120E43380CE130E4900E253910A9E2E5
:10353000A00125D5186B69743788DA108543920E7F
:10354000EBB00EFF65380DC7410325D61066694400
:10355000B70CCAF07F500665D00625D71166694CB6
:10356000B10DCAA00CFF076550360025D80E87693B
:1035700054F1FF215BADDBF02125D924AD2984F185
:10358000833A4C833424C3901C2ECA7051868B32EC
:103590005C94E1721892211AA4611D3E0825DA1785
:1035A000EDA885F1833A4C833424C3901C2ECA7055
:1035B00051864B0025DB17ED2884910C1765B82840
:1035C000C3E53024433448C33A7C1025DC0BC6A83D
:1035D00045B788D52A0025DD0AC6BC6D31AB715AC6
:1035E00025DE0BC67C6CDB182A1B0025DF0AC668AB
:1035F000449196537925E011CBA8753788AA940396
:10360000490EE9900E0525E112CB687491433AA466
:1036100043490E44AA38680025E21C8C697C0FE6F9
:10362000980EEDC89003833CACC3100E83369C8685
:103630004332FC4125E31D8C697C91833AB64343B8
:103640008E0C3A701E867418C4E1361CA2E1A00CE0
:103650000F25E41D8C697CF10FCA708886DB3088E9
:10366000C3900EF3A003438EEC908EE5200025E579
:103670001D8C697CF1653848C3211B8EC3A00E43A5
:103680003CECC0A023430EED980E0625E60EE7A401
:1036900044B555526B9265130025E7166B6974F1BA
:1036A000433AACC33AACC33AACC33AACC33A3C2598
:1036B000E8166B6974F17558877558877558877562
:1036C000588775F81025E9186B6974F17F4886D31F
:1036D0003068C3100EEB200F39B023C30325EA185E
:1036E0006B6974F11DD981211ED4611C866C18A4EC
:1036F000E132FC0F0125EB166B6974F13114433193
:103700001443311443311443311C1E25EC198B69C9
:10371000749B633994E4481DC8E22C2D46B568AA11
:103720005572687825ED1C8B69749B6339B4233B13
:10373000B0C44B3A44E1106583160D5A328CC30372
:1037400025EE1C8B69749B6339B4233B90CCC91A5A
:103750000D613464D9206583120E1F0425EF20AD5E
:103760002984370C690E643994E4A00EEAA00EEAAD
:10377000A00EEA609243590EA4C3900125F0176B86
:103780006974F13114433114C36108754887744872
:1037900087860725F1176B6974F11DD2211DD2A10F
:1037A0006108C5500CC5500C870725F2176B69746A
:1037B000F11DD2211DD2217118C2500CC5500C87A9
:1037C0000725F3176B6974F13114433114437118F1
:1037D000724887744887860725F41B6B697437889D
:1037E000522465953014C36108754887921C88542B
:1037F00071D00025F51A6B69743788AA9403490EB5
:10380000E9D03084622856B2921489830625F61ACC
:103810006B69743788AA9403490EE990380C6128C3
:1038200056B2921489830625F71B6B697437885248
:103830002465953014437118724887921C8854711E
:10384000D00000001D00040404050402060F10004F
:10385000FE0000000000000000035B203EFF30B8C7
:103860000A8A18212A488848C2880812859010427E
:103870008288882444892042C244F240489848847F
:10388000842811244408214144041111240A31419F
:103890004244124AC40881A5002115EE32B808A29C
:1038A00052C384C5830F563061A30A212900221E0A
:1038B000EE32B80812116526CCA120684224D251FC
:1038C0000834410E8531138A88405200231EEE329F
:1038D000B808121155288CA920A6421CC3590853B8
:1038E000414C8529148A88405200241EEE32B808C3
:1038F0001211452A4CB120E44214B4610872418A85
:103900008521158A88405200251EEE32B8080A1219
:1039100015304CD020414304967188A0418286091D
:10392000184A90405200261EEE32B8080A21158A25
:103930004CB022E14804B461897044829509454A3B
:1039400008415200271EEE32B8080A2115A84C285B
:1039500023A14C04C3D9895046429909544A0841CD
:103960005200281EEE32B8080A2115C64CA0236169
:103970005004D2518A3048029D09634A08415200DE
:10398000291EDD3418058B0D113444D02001C304E9
:103990000C132E9044218A050918483A52002A1720
:1039A000EE32B808A252C38405152A9AA8A01111B4
:1039B00036AA1092022B25EB3458480912252858B4
:1039C000A0508182850812285444A142040934245D
:1039D00054A03082820812450A002C23EB34B848E8
:1039E000091212484CA050812209112AA2A88284EF
:1039F00008166454A060814409124504002D26EE87
:103A000032B8080A1215304CD020414384091446BC
:103A10005828D9040A13220C992041C3040C2548C4
:103A20002029002E27EE32B882840716301CC940A8
:103A300091840812224898605104091126481021E7
:103A40001145492E6078604142012F1DEF30580228
:103A5000451526CAC103979D2C35A4C8A011E3C6FD
:103A60000C1325347874003019CE5238478A0D3340
:103A700052609030D3081B98EC60C111E3C4080376
:103A80003114C55A58C2840812224888202182CC99
:103A9000E2C508003212E73878824535689A225527
:103AA0003C3051660800331FDD52D882161325289A
:103AB0005C989041428610292264909061C2051260
:103AC00025AC683000341FDE52D8C29613252A5C1C
:103AD000A090614206112924D4883061D08450C25C
:103AE00048150A00351CDF50D8021714252C5CA895
:103AF0009081428D0823064D10254EDA70A40200F5
:103B000036220F11D8021714252C5CA89081428D03
:103B10000823064D10254EDA70A41E54901805890E
:103B200009003713AC5498C6A151F1E08109E54171
:103B300062112426003813BC5498C6A151F1E081CB
:103B400009E541621D2426003913CC5498C6A151C1
:103B5000F1E08109754183128D0C003A14CC549820
:103B6000C6A151F1E0810955E4868E151B08003B82
:103B700022DE327806850A438A4CA8408307850AEC
:103B8000438A4CA840E3410D0A158614995081865A
:103B9000013C23CE521886870E262648B8606182E3
:103BA000040B12D5884051090945284CA030918555
:103BB0001929020000000004FFFF00005432112404
:103BC0001FBECFEFD8E0DEBFCDBF12E0A0E0B1E076
:103BD000E8E1FAE702C005900D92A632B107D9F7E5
:103BE00024E0A6E2B2E001C01D92A03DB207E1F7D9
:103BF0001DE1CFEDDDE104C02197FE010E94E63C0E
:103C0000CE3DD107C9F70E9474330C940A3D0C9441
:103C10000000662329F06A3019F0862F90E008959D
:103C20008FEF9FEF0895AF92BF92CF92DF92EF9206
:103C3000FF920F93CF93DF93EC01DA017901942F78
:103C40009770E1E0F0E09F01092E01C0220F0A9475
:103C5000EAF7522F6E018AE8C80ED11CF601808166
:103C600040E0823018F4422F813049F15D01F8EFD5
:103C7000AF22E8ADF9AD28813981D90150968C91F8
:103C80008A9D90018B9D300D1124620F731FDF01FF
:103C9000A60FB71F01111AC0EA0EFB1E8C91842BD0
:103CA00085278D93AE15BF05C9F7DF91CF910F9191
:103CB000FF90EF90DF90CF90BF90AF90089550E0CD
:103CC000D5CF440F550FE114F10479F33C91342B17
:103CD00035273C939F5F9770E1E0EE1AF108911150
:103CE000F0CF2CAD3DADA20FB31FF6018081823025
:103CF00028F4813009F051E041E0E5CF51E0E3CF15
:103D000080E0089590E080E008959B01DC01189622
:103D1000ED91FC9141E067E1099480E991E008951B
:103D2000AF92BF92CF92DF92EF92FF920F931F93C9
:103D3000CF93DF936C017B018B01040F151FEB0107
:103D40005E01AE18BF08C017D10759F06991D601BE
:103D5000ED91FC910190F081E02DC6010995892B30
:103D600079F7C501DF91CF911F910F91FF90EF90EF
:103D7000DF90CF90BF90AF900895FC01538D448D9C
:103D8000252F30E0842F90E0821B930B541710F006
:103D9000CF96089501970895FC01918D828D981713
:103DA00061F0A28DAE0FBF2FB11D5D968C91928DEB
:103DB0009F5F9F73928F90E008958FEF9FEF08951C
:103DC000FC01918D828D981731F0828DE80FF11DE5
:103DD000858D90E008958FEF9FEF0895FC01918D00
:103DE000228D892F90E0805C9F4F821B91098F73F9
:103DF000992708958EE093E00E94EE1E21E0892B22
:103E000009F420E0822F089580E090E0892B29F0CA
:103E10000E94FA1E81110C9400000895FC01A48DEB
:103E2000A80FB92FB11DA35ABF4F2C91848D90E0DC
:103E300001968F739927848FA689B7892C93A089BF
:103E4000B1898C91837080648C93938D848D981349
:103E500006C00288F389E02D80818F7D80830895DC
:103E6000EF92FF920F931F93CF93DF93EC0181E0CA
:103E7000888F9B8D8C8D98131AC0E889F989808171
:103E800085FF15C09FB7F894EE89FF896083E889A4
:103E9000F98980818370806480839FBF81E090E096
:103EA000DF91CF911F910F91FF90EF900895F62E23
:103EB0000B8D10E00F5F1F4F0F731127E02E8C8DBD
:103EC0008E110CC00FB607FCFACFE889F989808102
:103ED00085FFF5CFCE010E940E1FF1CFEB8DEC0FC9
:103EE000FD2FF11DE35AFF4FF0829FB7F8940B8F1F
:103EF000EA89FB8980818062CFCFCF93DF93EC0189
:103F0000888D8823B9F0AA89BB89E889F9898C91C1
:103F100085FD03C0808186FD0DC00FB607FCF7CF7D
:103F20008C9185FFF2CF808185FFEDCFCE010E947D
:103F30000E1FE9CFDF91CF910895833081F028F4EF
:103F4000813099F08230A9F008958730A9F0883047
:103F5000C9F08430B1F4809180008F7D03C08091DE
:103F600080008F7780938000089584B58F7784BD1B
:103F7000089584B58F7DFBCF8091B0008F778093BB
:103F8000B00008958091B0008F7DF9CFCF93DF937B
:103F9000282F30E0F901E855FE4F8491F901EC56E5
:103FA000FE4FD491F901E058FE4FC491CC23A1F00B
:103FB00081110E949D1FEC2FF0E0EE0FFF1FEA58C9
:103FC000FE4FA591B491EC91ED2381E090E009F4CE
:103FD00080E0DF91CF91089580E090E0FACF1F93C9
:103FE000CF93DF93282F30E0F901E855FE4F8491FD
:103FF000F901EC56FE4FD491F901E058FE4FC491FF
:10400000CC23A9F0162F81110E949D1FEC2FF0E008
:10401000EE0FFF1FE459FE4FA591B4918FB7F894AE
:10402000EC91111108C0D095DE23DC938FBFDF9196
:10403000CF911F910895DE2BF8CFCF93DF9390E0BF
:10404000FC01EC56FE4F249180589E4FFC01849158
:104050008823D1F090E0880F991FFC01EE59FE4FA4
:10406000A591B491FC01E459FE4FC591D491623001
:1040700071F49FB7F8943C91822F809583238C93A1
:10408000E8812E2B28839FBFDF91CF9108958FB7B2
:10409000F894EC912E2B2C938FBFF6CFCF93DF9318
:1040A000EC0161E089E00E941D20209731F460E07E
:1040B00089E0DF91CF910C94EF1FCF3FD10511F430
:1040C00061E0F6CFE1EBF1E0E491E33029F140F477
:1040D000E130B1F0E230D9F0C038D1058CF7E7CF4C
:1040E000E73021F1E83051F1E430B1F78091800000
:1040F000806280938000D0938B00C0938A0004C0BC
:1041000084B5806884BDC7BDDF91CF91089584B523
:10411000806284BDC8BDF8CF8091800080688093A4
:104120008000D0938900C0938800EECF8091B000CA
:1041300080688093B000C093B300E6CF8091B00058
:1041400080628093B000C093B400DECF3FB7F89494
:104150008091BF029091C002A091C102B091C202B1
:1041600026B5A89B05C02F3F19F00196A11DB11DD2
:104170003FBFBA2FA92F982F8827BC01CD01620F0E
:10418000711D811D911D42E0660F771F881F991FC9
:104190004A95D1F708954F925F926F927F929F92C6
:1041A000AF92BF92CF92DF92EF92FF920F931F9345
:1041B000CF93DF9300D01F92CDB7DEB7D82E80917A
:1041C000AE039091AF03A091B003B091B103892BDE
:1041D0008A2B8B2BD9F00E94A62000910A03109104
:1041E0000B0320910C0330910D03601B710B820BAC
:1041F000930B0091AE031091AF032091B003309167
:10420000B1036017710782079307C8F20E94A620C6
:1042100060930A0370930B0380930C0390930D0338
:10422000E091B603F091B703309759F04091B20393
:104230005091B3036091B4037091B5038D2D09952E
:10424000D82EE0900803F09009034D2C512C712CCE
:10425000612CE114F10409F459C0D7011C96CC90EB
:104260001C978091AC039091AD038436910510F4B6
:104270001C961C92D701ED91FC91A280B38019820B
:104280001A821B82DD2079F1F701369610E000E0FA
:104290002191222319F19280992001F130E050E020
:1042A00040E02F5F3F4F4F4F5F4FC301B2010E946D
:1042B000A73C9B01AC01892D90E0B0E0A0E0BC01DF
:1042C000CD016F5F7F4F8F4F9F4F0E94A73CA1E0B2
:1042D000B0E0AC0FBD1FA00FB11F8C930F5F1F4F3D
:1042E00003301105A9F609811A812B81F701458553
:1042F000568562817381C701F5010995D7011C9626
:10430000CC921C971496ED90FC90A3CF809106035D
:10431000909107039C012F5F3F4F30930703209339
:10432000060349970CF44AC08FB7F8942091FE0217
:104330003091FF0240910003509101038FBF8091A3
:10434000020390910303A0910403B0910503281B7D
:10435000390B4A0B5B0B21F421E030E040E050E0E8
:10436000E0910603F091070388EE93E0E89FB00127
:10437000E99F700DF89F700D1124072E000C880B1B
:10438000990B0E94AC3A3093AD032093AC0310928A
:104390000703109206032FB7F8948091FE029091C4
:1043A000FF02A0910003B09101032FBF809302038D
:1043B00090930303A0930403B09305030F900F9011
:1043C0000F90DF91CF911F910F91FF90EF90DF90B1
:1043D000CF90BF90AF909F907F906F905F904F90E5
:1043E00008958F929F92AF92BF92CF92DF92EF92F9
:1043F000FF926B017C010E94A6204B015C01C1145D
:10440000D104E104F104B9F00E94A62068197909E9
:104410008A099B09683E73408105910580F321E07C
:10442000C21AD108E108F10888EE880E83E0981ED0
:10443000A11CB11CE4CFFF90EF90DF90CF90BF9014
:10444000AF909F908F90089520917402260F33278C
:10445000331F21323105ECF420919802FC0190E0E9
:1044600080E0243069F082E00895A09174022191E7
:10447000AC014C5A5D4FA40FB52FB11D2C93019682
:10448000861798F380917402680F6093740280E03D
:10449000089581E0089508958FEF9FEF08958FEFBD
:1044A0009FEF089580914D0290E09195819591093B
:1044B0000895CF93DF93CB01EA01642F0E94242259
:1044C000CE01DF91CF910895CF93DF931F92CDB7A7
:1044D000DEB7698361E0CE0101960E94242281E06B
:1044E00090E00F90DF91CF910895DC011A96ED9145
:1044F000FC9130E020E00994DC011696ED91FC91EE
:1045000030E020E040E069E10994DC011696ED918D
:10451000FC9130E020E040E068E109949A01DC0180
:104520001696ED91FC91462F67E10994EF92FF9268
:104530000F931F93CF93DF931F92CDB7DEB77C010C
:104540008B01D8016C91673129F150F46531A0F4E9
:104550000F90DF91CF911F910F91FF90EF900895F1
:104560006A3118F16E3FA1F7F8014181498369E290
:10457000C7010E9475220BC0F80141814983D70110
:104580001696ED91FC9130E020E0C70109950E5F91
:104590001F4FD7CFF80181818983AE014F5F5F4FF5
:1045A00061E0C7010E948E22F2CF0F5F1F4FD7013B
:1045B0001696ED91FC9130E020E040E0C7010995AE
:1045C000C0CF462FDC011696ED91FC9130E020E043
:1045D00066E10994462FDC011696ED91FC9130E0DE
:1045E00020E065E10994EF92FF920F931F93CF9320
:1045F000DF93EC01042F79016D3009F446C050F4CB
:104600006B30C9F1693009F49FC06A3009F465C0A4
:1046100080E046C06E3009F452C06F3099F70E94B6
:104620008522F7011381110F110F110F6C89160FDD
:1046300060E4CE010E94EA22612F62956F70606192
:10464000CE010E94EA22612F6F70CE010E94E1220A
:10465000F7016481606BCE010E94E122F701408185
:1046600051816281660F660F660FCE010E948E2215
:104670000150A1F72EC067E171E0442311F062E11F
:1046800071E0CE010E9496220AC0411110C06BE079
:1046900071E00E949622E881F98182898C8B81E009
:1046A000DF91CF911F910F91FF90EF90089564E0FB
:1046B00071E00E949622E881F9818389EFCF0E9400
:1046C000852261E8CE010E94EA22602FCE010E947D
:1046D000E122CE010E947C22E2CFEA85FB8530E018
:1046E00020E040E068E2CE010995EE81FF8130E0F4
:1046F00020E040E064E1CE01099541E06BE4CE01A9
:104700000E947522E881F981448169E2CE010E940C
:10471000752240E06BE4CE010E947522E881F981A8
:10472000448169E2CE010E94752241E06BE4CE0132
:104730000E947522E881F981458169E2CE010E94DB
:1047400075226CE171E09DCF81E591E099838883CA
:104750001C8AA5CF41E06DE40C947522DC01ED913B
:10476000FC9145856DE20C947522CF93DF93EC01AB
:1047700041E06CE40E947522CE01DF91CF910C9450
:10478000AE23CF93DF93EC01662379F00E94AA2336
:10479000CE010E94AE23CE010E94B52340E06CE41E
:1047A000CE01DF91CF910C94752240E06DE40E9420
:1047B0007522EECF1F93CF93DF93EC01162F607815
:1047C0000E94C123612F6074CE010E94C123612F1A
:1047D0006072CE010E94C123612F6071CE010E94E0
:1047E000C123612F6870CE010E94C123612F6470C4
:1047F000CE010E94C123612F6270CE010E94C123AD
:10480000612F6170CE010E94C123CE010E94AA23B4
:10481000CE010E94AE23CE010E94B523CE010E949C
:10482000AA23CE010E94AE2340E06CE4CE01DF91CA
:10483000CF911F910C947522DC011896ED91FC919B
:1048400030E020E040E069E10994DC011896ED9148
:10485000FC9130E020E040E068E10994CF93DF93E1
:104860001F92CDB7DEB76983BE016F5F7F4F0E9495
:10487000851E0F90DF91CF910895EF92FF921F93C5
:10488000CF93DF93EC01162F7A010E94252460E478
:10489000CE010E942E24E885F9859701412F67E11A
:1048A000CE010995CE01DF91CF911F91FF90EF903E
:1048B0000C941C24EF92FF921F93CF93DF93EC0193
:1048C000142F7901663181F138F4643109F44BC059
:1048D000653179F080E022C06831C9F150F1693169
:1048E000C9F780914C02882391F1CE010E941C24CB
:1048F0002EC080914C02882319F0CE010E941C2406
:10490000CE010E94252460E0CE010E942E24612F5A
:10491000CE010E942E2481E080934C02DF91CF9142
:104920001F91FF90EF900895642F0E942E2481E044
:10493000F5CF80914C02882319F0CE010E941C24EF
:10494000A701193138F4612FCE010E943D24109245
:104950004C02EDCF68E1CE010E943D24185188E160
:10496000E80EF11CEDCF8E898F3F11F488E78E8B16
:10497000E885F9859701412F64E1CE01DF91CF9160
:104980001F91FF90EF9009940F93FC01E05CFF4FA3
:104990000190F081E02D4E1B5F0BDC01D496ED9170
:1049A000FC9109950F910895CF93DF93FC01A081AD
:1049B000B18182AD90E09C0143E0220F331F4A9504
:1049C000E1F737AF26AF50962C91509748E0249FDF
:1049D0009001112435AF24AF23AD30E0B90153E08D
:1049E000660F771F5A95E1F7EF01C05CDF4F7983BF
:1049F000688351964C915197E901C80FD91F50E037
:104A00004C175D0718F4CA01821B930BEF01CE5BB4
:104A1000DF4F79836883229623E0880F991F2A95B8
:104A2000E1F7860F971F99838883229654968D917C
:104A30009C91559799838883E85BFF4F56968D919B
:104A40009C9191838083DF91CF9108950F931F9361
:104A5000FC01E25BFF4F0190F081E02DDC01A05BE7
:104A6000BF4F0D90BC91A02D4A175B0740F4E01793
:104A7000F10748F00417150730F080E019C0E0177F
:104A8000F107C0F3FACFFC01E65BFF4F4081518193
:104A9000845B9F4FFC01808191816817790758F4EE
:104AA00081E04217530720F081E02617370728F7E7
:104AB0001F910F91089542175307B0F3DECF2F9245
:104AC0003F924F925F926F927F928F929F92AF929E
:104AD000BF92CF92DF92EF92FF920F931F93CF93EB
:104AE000DF93CDB7DEB72A970FB6F894DEBF0FBEBF
:104AF000CDBF9A878987865B9F4F9A838983FC0104
:104B000011821082E985FA85EA5BFF4F408051806F
:104B100029853A85245B3F4F3C832B83F9015182E1
:104B20004082E985FA85EE5BFF4F20803180298540
:104B30003A85225B3F4F3E832D83F90131822082EB
:104B4000E985FA85EC5BFF4F6080718029853A85A5
:104B5000205B3F4F38872F83F90171826082E9859E
:104B6000FA85E85AFF4FE080F180E985FA85EC5A32
:104B7000FF4FA080B180E985FA85EA5AFF4FC080D7
:104B8000D180E985FA85EE5AFF4F808091808701B8
:104B90009501A601B40189859A850E94262529855B
:104BA0003A852C573F4F3A87298781111BC0F9015D
:104BB00010822A960FB6F894DEBF0FBECDBFDF91EC
:104BC000CF911F910F91FF90EF90DF90CF90BF900A
:104BD000AF909F908F907F906F905F904F903F909D
:104BE0002F90089581E0E985FA85808381149104EE
:104BF00021F0E981FA8191828082A414B50420F425
:104C0000EB81FC81B182A0822C143D0420F4ED8163
:104C1000FE81D182C082E614F70458F6EF81F88550
:104C2000F182E082C6CF0F93CF93DF93E02FDC01B8
:104C3000AC57BF4FFC91FF2309F460C0211531052B
:104C400009F45CC02230310538F0023009F04AC066
:104C50006F5F7F4F621B730B0E2F0170E0FD52C020
:104C6000FC01E25BFF4F0190F081E02D4E175F07E2
:104C700008F444C0FC01E05BFF4F0190F081E02D9F
:104C80004E175F07D8F5FC01E45BFF4F0190F08100
:104C9000E02DDC01A65BBF4F0D90BC91A02D260F2F
:104CA000371F2617370738F56E177F0718F59F014E
:104CB00021503109A217B30708F56A177B0708F4DA
:104CC000BD012E173F0708F4F901E61BF70BEC01B5
:104CD000AEA9BFA914960D90BC91A02D9F01FD0116
:104CE00009950CC0033009F0B7CF4F5F5F4F421BEF
:104CF000530BB2CFBD016E177F07E0F2DF91CF916A
:104D00000F910895FC01E65BFF4F0190F081E02DCB
:104D10006E177F0798F3FC01E45BFF4F0190F08171
:104D2000E02D6E177F0750F7FC01E05BFF4F01900D
:104D3000F081E02DDC01A25BBF4F0D90BC91A02D56
:104D4000240F351F24173507A8F44E175F0788F482
:104D50009F0121503109A217B30780F64A175B075C
:104D600008F4AD012E173F0708F4F901E41BF50B19
:104D7000AECFAD014E175F0708F6EDCF213069F0D9
:104D800038F0223079F0840F911D47FD9A950895EF
:104D9000860F911D67FD9A950895841B910947FD23
:104DA00093950895861B910967FD93950895213089
:104DB00069F038F0223079F0861B910967FD9395F0
:104DC0000895840F911D47FD9A950895860F911DB2
:104DD00067FD9A950895841B910947FD9395089561
:104DE0003F924F925F926F927F928F929F92AF927B
:104DF000BF92CF92DF92EF92FF920F931F93CF93C8
:104E0000DF937C01162F442EEC01C25ADF4F5E80E7
:104E10006F806C018AE8C80ED11C78847518312E19
:104E2000711608F4372C8C809D800E85202F462D1E
:104E3000652D8A819B810E94BE265C01202F462D14
:104E4000652DC4010E94D726AC01442079F08C85E1
:104E5000F6018083232D30E0B501C7010E9413269F
:104E6000171548F017196394512CD7CF8B858111F2
:104E7000F7CF8D85EDCF150D1E836F82DF91CF911A
:104E80001F910F91FF90EF90DF90CF90BF90AF9068
:104E90009F908F907F906F905F904F903F9008957C
:104EA000DC011A964C911A97ED91FC91119724917F
:104EB00030E0042E02C0359527950A94E2F7842F3E
:104EC000860F883068F031961196FC93EE93E4914A
:104ED00098E0941B01C0EE0F9A95EAF72E2B8850AC
:104EE0001A968C938FEF9FEF01C0880F6A95EAF7AF
:104EF000809582230895FC01E60FF11D849190E0D6
:104F0000982F88273196E4918E0F911D0895CF93A5
:104F1000DF9320919804309199042817390709F4F8
:104F200090C0EC019093990480939804FC018491C3
:104F30008093AB043196E491E093AC04FE01329689
:104F4000E491E093AD04FE013396E491E093AE0466
:104F5000FE013496E491E093AF04FE013596E491AE
:104F6000E093B004FE013696E491E093B104FE01B3
:104F70003796E491E093B204FE013896E491E09311
:104F8000B304FE013996E491E093B404FE013A962D
:104F9000E491E093B504FE013B96E491E093B604FE
:104FA000FE013C96E491E093B704FE013D96E49146
:104FB000E093B804FE013E96E491E093B904FE014B
:104FC0003F96E491E093BA04FE017096E491E09379
:104FD000BB0461E1CE010E947B279093BD048093C6
:104FE000BC0463E1CE010E947B279093BF048093B1
:104FF000BE0465E1CE010E947B279093C10480939B
:10500000C0048091980490919904892BD1F08091EB
:10501000B8048093C4044091B9044093C5049091AE
:10502000C304992371F0913079F49091BA048917EF
:1050300014F49093C4048091BB04841714F48093F7
:10504000C504DF91CF9108953091B5042091B70444
:10505000082E000C990B622F022E000C770B630FA9
:10506000711D37FD7A95861797071CF4320F309320
:10507000C404241734F72093C504E3CF4F925F9202
:105080006F927F928F929F92AF92BF92CF92DF9258
:10509000EF92FF920F931F93CF93DF93EC016B017D
:1050A0008A017901FC01E459FF4F8081813009F4C4
:1050B0004BC008F43EC0823009F451C0833009F47B
:1050C00059C0FE01E05AFF4FD182C082329611834F
:1050D000008338978081918147962FEFE216F10483
:1050E00011F008F0F2C0E1E6EE16F10408F44DC04C
:1050F000FE01E058FF4F20813181820F931F9C01F8
:105100002F5F3F4FF9014491411148C090E080E08A
:10511000DF91CF911F910F91FF90EF90DF90CF9093
:10512000BF90AF909F908F907F906F905F904F90C7
:105130000895FE01E45AFF4F0190F081E02DCE0169
:105140000995080F191FBDCFFE01E45AFF4F0190CA
:10515000F081E02DCE010995C81AD90AB2CFFE011F
:10516000E45AFF4F0190F081E02DCE010995081B14
:10517000190BA7CFFE01E45AFF4F0190F081E02DFB
:10518000CE010995C80ED91E9CCFF1E4EF16F104AB
:1051900008F4B5CFFE01E258FF4FADCFFC014491BA
:1051A0004E151F0409F08CC00296009709F4AECF8B
:1051B0007E01FEE5EF0EF11CF701918380831286DC
:1051C00073966081C7010E945027F701808774960B
:1051D0006081C7010E945027982EF70181875E01E8
:1051E000FAE8AF0EB11CF5019081F701948781E0D8
:1051F000911180E0F7018587FE01ED58FF4FC080D7
:105200006C2DC7010E945027582EFE01EC58FF4F0D
:10521000D0806D2DC7010E945027482EFE01EB580B
:10522000FF4F1081612FC7010E9450279FEF910F00
:1052300001E010E0980101C0220F9A95EAF7882E4C
:10524000821AF701608416140CF0ADC0CA94C8012C
:1052500001C0880FCA94EAF7581A7684490CDA9488
:10526000A80101C0440FDA94EAF7F42FF4194F2E85
:10527000272D4F2F652DF701828193810E94BE2635
:105280006C01F70193838283272D442D652D848142
:1052900095810E94D726F70195838483F1E07F16DC
:1052A00009F485C07F1608F43FC022E0721609F4A5
:1052B0008DC0E3E07E1609F49DC0BC0196013EC09E
:1052C000F9012491820F911D1ACFFE01EE57FF4F75
:1052D00000811181080F191F680160E0C6010E945A
:1052E0007B27080F191F62E0C6010E947B27F4E0AC
:1052F000CF0ED11C8E159F0580F3F801849190E0AC
:10530000982F88273196E4918E2B009709F4FECED2
:10531000E816F90619F4C801039647CFF80132964A
:10532000E4910E0F111DE9CF9601260D311D67FC8A
:105330003A95BC01690D711D97FC7A958B01AC0102
:10534000B601CE010E942625882369F1F701168255
:1053500017828E0101591F4F6E01F0E7CF0ED11C4D
:10536000F8016081C7010E945027682EF601608114
:10537000C7010E945027782E40E0662DCE010E9482
:10538000F02641E0672DCE010E94F02661E0C701C2
:105390000E9450278111F0CFF7018781891504F30E
:1053A0008485F5018083882D880C990BB1CE09196D
:1053B000110997FC139596012F5F3F4FBC01660DB5
:1053C000711D67FC7A95C00ED11EB8CFA801461991
:1053D000510967FC539596012F5F3F4F0919110939
:1053E00097FC1395BC016F5F7F4F800F911FC40E18
:1053F000D51EA4CF9601290D311D97FC3A950619AB
:10540000110967FC1395BC016F5F7F4F800F911FDF
:1054100095CFCF92DF92EF92FF920F931F93CF938E
:10542000DF93EC018B01109256047A01D12CC12C30
:10543000F70161917F01E0914004F09141048EE316
:1054400094E009958F3F980719F18E3F2FEF92074F
:1054500079F39C01A801BE018EE394E00E943E28EE
:105460002091AA04213059F038F0223059F023302D
:1054700061F0C80ED91EDCCFC80FD91FFACF080FB4
:10548000191FF7CFC81BD90BF4CF081B190BF1CF8D
:10549000C601DF91CF911F910F91FF90EF90DF90A8
:1054A000CF900895CF93DF93EC016BAFEEA9FFA9E6
:1054B0000190F081E02D0995EEA9FFA90280F3810A
:1054C000E02DCE01DF91CF910994AF92BF92CF92A0
:1054D000DF92EF92FF920F931F93CF93DF9300D051
:1054E00000D01F92CDB7DEB78C01DC01DA96AC900C
:1054F000DA97DB96EC90DB97ED91FC91B188FE2C6E
:10550000D12CC12CD801ED91FC9111978089D896AE
:105510002D913C911C82FD828B83B8E08B9FC00152
:1055200011248C9DA0018D9D500D9C9D500D11242A
:10553000240F351F3A832983D8011496ED91FC91ED
:105540009E012F5F3F4F41E06FE0C8010995F39442
:105550008F2D8E198A1528F4BFEFCB1ADB0AFB14A6
:1055600088F20F900F900F900F900F90DF91CF91D6
:105570001F910F91FF90EF90DF90CF90BF90AF9071
:105580000895EF92FF921F93CF93DF93EC01142FB6
:105590007901683151F130F46431D1F06731A9F00B
:1055A00080E006C0693109F443C06032C9F781E088
:1055B000DF91CF911F91FF90EF900895F7016191D6
:1055C0007F01CE010E94DA2311501111F7CFEFCFE6
:1055D00041E06CE40E94752241E06DE4CE010E943E
:1055E0007522CE010E94AE23E2CF8F89882349F035
:1055F000CE010E94AA23CE010E94AE23CE010E94BA
:10560000B523CE010E94AA2340E06DE4CE010E94A2
:105610007522CE010E94AE2340E06CE4CE010E94D0
:10562000752281E08F8B6E89CE010E94DA23BFCF75
:1056300040E06DE40E947522CE010E94AE23CE01AF
:105640000E94B523CE010E94AA23CE010E94AE2360
:105650001F8AADCF0F931F93CF93DF938C01C62F7B
:10566000642FCC32E8F4CA3208F041C0C83271F17C
:10567000C93209F442C080E0C034D0F1CF73F801E0
:10568000EC0FF11D868D8F3F91F1C031E0F00E944B
:10569000C61F21E0892B09F420E0F801218F27C0E3
:1056A000CD3289F140F384EB8C0F823020F7CF7339
:1056B000C00FD12FD11D8E8D411133C061E00E94EA
:1056C0001D2060E08E8D0E94EF1F11C0025E1F4FF3
:1056D000D0E0F80181918F018F3F31F061E0D0314E
:1056E00008F062E00E941D20DF5FD63191F781E073
:1056F000DF91CF911F910F91089570E090E080E0CD
:105700000E94F121F4CF85E090E0433010F082E078
:1057100090E0880F991F880F991F05970197F1F75F
:10572000E6CF62E00E941D20E2CF0F931F93CF933C
:10573000DF9320914B022F5F322F377030934B0253
:1057400020FF2BC020E831FD2064347009F0206276
:10575000205FFC01EC01239600E011E064856623E4
:1057600029F070E0C8010E94B73C6F5F6187322F5B
:10577000369F030E30E0311D1124311110C0168206
:10578000662311F0615061873196EC17FD0731F700
:10579000DF91CF911F910F91089520E0D4CF315028
:1057A0003683EECF4F925F927F928F929F92AF920D
:1057B000BF92CF92DF92EF92FF920F931F93CF93FE
:1057C000DF932C01EB010E94A620F201278530898E
:1057D000621B730B6A307105B0F3F8948A819B8168
:1057E000181619060CF0CDC1E881F9816BB1862E2F
:1057F000689487F83BB13F773BB9DA848F812D2DD0
:10580000281B822F2F834F85042E000C550BAA8155
:10581000BB817D85FC84EE847F5FF394E3949E815D
:105820009884B984AB841181C12C6C2D0C2D2C2D46
:105830002181112788942111280F08F42FEF8195D9
:10584000889470FD120F1795889471FD120F1795AB
:10585000889472FD120F1795889473FD120F179597
:10586000889474FD120F1795889475FD120F179583
:10587000889476FD120F1795889477FD120F17956F
:105880008894622F7111612F8D0D162F002C8BB80B
:1058900000C017FF3BB920816627889400C000C074
:1058A000002C3BB92111290F00C0002C8BB800C07F
:1058B00016FF3BB908F42FEF9195889400C000C003
:1058C000002C3BB9F0FC620F00C0002C8BB800C06C
:1058D00015FF3BB967958894F1FC620F00C000C0CA
:1058E000002C3BB96795889400C0002C8BB800C091
:1058F00014FF3BB9F2FC620F6795889400C000C0AA
:10590000002C3BB9F3FC620F00C0002C8BB800C028
:1059100013FF3BB967958894F4FC620F00C000C088
:10592000002C3BB96795889400C0002C8BB800C050
:1059300012FF3BB9F5FC620F6795889400C000C068
:10594000002C3BB9F6FC620F00C0002C8BB800C0E5
:1059500011FF3BB967958894F7FC620F00C000C047
:10596000002C3BB96795889400C0002C8BB800C010
:1059700010FF3BB9122FF110162F9B0D00C000C075
:10598000002C3BB900C000C0002C8BB800C017FF32
:105990003BB922816627889400C000C0002C3BB927
:1059A0002111290D00C0002C8BB800C016FF3BB997
:1059B00008F42FEFE40FF51F00C000C0002C3BB926
:1059C000E0FC620F00C0002C8BB800C015FF3BB993
:1059D00067958894E1FC620F00C000C0002C3BB9C1
:1059E0006795889400C0002C8BB800C014FF3BB9A9
:1059F000E2FC620F6795889400C000C0002C3BB9A0
:105A0000E3FC620F00C0002C8BB800C013FF3BB951
:105A100067958894E4FC620F00C000C0002C3BB97D
:105A20006795889400C0002C8BB800C012FF3BB96A
:105A3000E5FC620F6795889400C000C0002C3BB95C
:105A4000E6FC620F00C0002C8BB800C011FF3BB910
:105A500067958894E7FC620F00C000C0002C3BB93A
:105A60006795889400C0002C8BB800C010FF3BB92C
:105A7000122FE110162F919400C000C0002C3BB9EA
:105A80009A0C00C000C08BB800C017FF3BB9218141
:105A90006627889400C000C0002C3BB92111280F54
:105AA00000C0002C8BB800C016FF3BB908F42FEFE4
:105AB0008195889400C000C0002C3BB970FD620F36
:105AC00000C0002C8BB800C015FF3BB967958894C7
:105AD00071FD620F00C000C0002C3BB9679588942F
