:100000000C945E000C94D1050C94AA050C94860007
:100010000C9486000C9486000C9486000C94AC041E
:100020000C9486000C9486000C9486000C94860038
:100030000C9486000C9486000C9486000C94860028
:100040000C9460050C9486000C942E050C94080505
:100050000C9486000C9486000C9486000C94860008
:100060000C9486000C948600000000080002010039
:100070000003040700000000000000000200000070
:1000800000250028002B0000000000240027002A83
:100090000004040404040404040202020202020331
:1000A000030303030301020408102040800102043B
:1000B000081020010204081020008F0711241FBE21
:1000C000CFEFD8E0DEBFCDBF11E0A0E0B1E0EAE0C5
:1000D000F0E102C005900D92A03BB107D9F722E0F4
:1000E000A0EBB1E001C01D92AC36B207E1F710E021
:1000F000CEE5D0E004C02197FE010E94FD07CD357A
:10010000D107C9F70E94F8050C9403080C9400006D
:1001100090E0FC01EB55FF4F24918F569F4FFC015F
:100120008491882399F090E0880F991FFC01E9578A
:10013000FF4FA591B491FC01E358FF4F8591949135
:100140008FB7F894EC91E22BEC938FBF08958F92C8
:100150009F92AF92BF92CF92DF92EF92FF92CF9396
:100160006C01809108018D3069F08F3F09F46FC0F8
:10017000CF91FF90EF90DF90CF90BF90AF909F9086
:100180008F900895ECE7F0E0C491C7FDF1CF8DE0CA
:100190000E948800CC2319F0C23009F021C1F12C53
:1001A000E12C60E072E18AE790E0A70196010E94ED
:1001B000BC0749015A01DA01C9010197A109B10936
:1001C0008F3F9105A105B10509F00CF4EDC060E485
:1001D00072E48FE090E0A70196010E94BC072150D5
:1001E000310941095109C23009F09FC082E02F3F17
:1001F00031054105510509F00CF487C160E970ED46
:1002000083E090E0A70196010E94BC0721503109CC
:100210004109510983E02F3F31054105510509F09E
:100220000CF473C168E478EE81E090E0A7019601D8
:100230000E94BC0721503109410951092F3F310566
:100240004105510511F00CF08EC084E05EC18DE0D7
:1002500080930801ECE7F0E0C491CF3F09F488CF28
:10026000C13019F148F0C23009F43DC0C7FD80CF5C
:100270008DE00E94880090CF14BC15BC84B58260CC
:1002800084BD85B5816085BDEEE9F0E0E491F0E0E4
:10029000EE0FFF1FE358FF4F85919491E2EBF0E0E2
:1002A000E491E093C201C0E072CF109280001092FE
:1002B000810080918100886080938100809181001D
:1002C000816080938100EEE9F0E0E491F0E0EE0FD0
:1002D000FF1FE358FF4F85919491E2EBF0E0E4912A
:1002E000E093C10154CF1092B0001092B100809100
:1002F000B00082608093B0008091B10081608093F3
:10030000B100EEE9F0E0E491F0E0EE0FFF1FE358FA
:10031000FF4F859194919093C0018093BF01E2EBD0
:10032000F0E0E491E093BE0132CF2F3F310541056B
:10033000510509F00CF452C068E478EE81E090E0D9
:10034000A70196010E94BC072150310941095109BA
:10035000CC2309F4AFC02F3F31054105510511F001
:100360000CF0B0C072CF64E274EF80E090E0A701BF
:1003700096010E94BC07215031094109510985E0CD
:100380002F3F31054105510509F008F4BEC062E177
:100390007AE780E090E0A70196010E94BC07215017
:1003A0003109410951099CC09C0181E0C111ADC0D6
:1003B00095B5987F892B85BD27BD8FEF9FEFDC0119
:1003C0008093CB019093CC01A093CD01B093CE014B
:1003D00080916E00826080936E00CACE82E0E6CF8C
:1003E000F12CE12C60E072E18AE790E0A701960130
:1003F0000E94BC07215031094109510991E02115A2
:10040000310581E0480751056CF068E478EE81E041
:1004100090E0A70196010E94BC07215031094109D3
:10042000510993E0C13009F076C080918100887F46
:10043000892B8093810030938900209388008FEF6F
:100440009FEFDC018093C7019093C801A093C9017D
:10045000B093CA0180916F00826080936F0088CE54
:100460002093B3008FEF9FEFDC018093C301909343
:10047000C401A093C501B093C60180917000826051
:100480008093700075CE84E02F3F31054105510502
:1004900009F008F48DCF9AE0B594A79497948794C7
:1004A0009A95D1F7A50194012150310941095109CB
:1004B00085E07ECF83E02F3F31054105510509F0EE
:1004C0000CF476CF62E17AE780E090E0A701960134
:1004D0000E94BC072150310941095109CC2399F2EE
:1004E00086E02F3F31054105510579F070F08AE033
:1004F000B594A794979487948A95D1F7A501940110
:10050000215031094109510987E09091B100987F4C
:10051000892B8093B100C13009F48DCFC23009F42A
:100520009FCFC11125CE48CFAF92BF92CF92DF921D
:10053000EF92FF920F931F93CF93DF936C017B0198
:100540008B01040F151FEB015E01AE18BF08C01729
:10055000D10759F06991D601ED91FC910190F0819C
:10056000E02DC6010995892B79F7C501DF91CF915F
:100570001F910F91FF90EF90DF90CF90BF90AF90C1
:100580000895FC01538D448D252F30E0842F90E099
:10059000821B930B541710F0CF960895019708957E
:1005A000FC01918D828D981761F0A28DAE0FBF2F47
:1005B000B11D5D968C91928D9F5F9F73928F90E09D
:1005C00008958FEF9FEF0895FC01918D828D98170C
:1005D00031F0828DE80FF11D858D90E008958FEF49
:1005E0009FEF0895FC01918D228D892F90E0805C12
:1005F0009F4F821B91098F73992708958FEC91E08B
:100600000E94F20221E0892B09F420E0822F089554
:1006100080E090E0892B29F00E94FE0281110C9469
:1006200000000895FC01A48DA80FB92FB11DA35A95
:10063000BF4F2C91848D90E001968F739927848F02
:10064000A689B7892C93A089B1898C918370806425
:100650008C93938D848D981306C00288F389E02DC6
:1006600080818F7D80830895EF92FF920F931F9377
:10067000CF93DF93EC0181E0888F9B8D8C8D981355
:100680001AC0E889F989808185FF15C09FB7F89461
:10069000EE89FF896083E889F989808183708064AD
:1006A00080839FBF81E090E0DF91CF911F910F91F8
:1006B000FF90EF900895F62E0B8D10E00F5F1F4F07
:1006C0000F731127E02E8C8D8E110CC00FB607FC16
:1006D000FACFE889F989808185FFF5CFCE010E94A4
:1006E0001203F1CFEB8DEC0FFD2FF11DE35AFF4FFD
:1006F000F0829FB7F8940B8FEA89FB898081806232
:10070000CFCFCF93DF93EC01888D8823B9F0AA89EE
:10071000BB89E889F9898C9185FD03C0808186FDBC
:100720000DC00FB607FCF7CF8C9185FFF2CF80810B
:1007300085FFEDCFCE010E941203E9CFDF91CF916B
:10074000089590E0FC01E859FF4F2491FC01EB551E
:10075000FF4F3491FC01EF56FF4FE491EE23C9F0B7
:10076000222339F0233001F1A8F4213019F122308D
:1007700029F1F0E0EE0FFF1FE358FF4FA591B49170
:100780008FB7F894EC91611126C030953E233C93CD
:100790008FBF08952730A9F02830C9F0243049F7D9
:1007A000809180008F7D03C0809180008F7780933F
:1007B0008000DFCF84B58F7784BDDBCF84B58F7D9C
:1007C000FBCF8091B0008F778093B000D2CF809123
:1007D000B0008F7DF9CF3E2BDACF909108018913BD
:1007E0000BC0ECE7F0E0E4919FEF90930801E1305B
:1007F00049F028F0E23061F060E00C94A10310921F
:100800006E00FACF90916F009D7F90936F00F4CFB0
:10081000909170009D7F9093700091E09093B00054
:100820009091B100987F94609093B1001092B300C2
:10083000E3CF3FB7F8948091B5019091B601A091B4
:10084000B701B091B80126B5A89B05C02F3F19F09C
:100850000196A11DB11D3FBFBA2FA92F982F882740
:10086000BC01CD01620F711D811D911D42E0660F1B
:10087000771F881F991F4A95D1F708958F929F92ED
:10088000AF92BF92CF92DF92EF92FF926B017C0109
:100890000E9419044B015C01C114D104E104F1046C
:1008A000B9F00E941904681979098A099B09683E00
:1008B00073408105910580F321E0C21AD108E10857
:1008C000F10888EE880E83E0981EA11CB11CE4CFCD
:1008D000FF90EF90DF90CF90BF90AF909F908F9060
:1008E00008958DE00E94ED0368EE73E080E090E0F3
:1008F0000E943E048091BC019091BD01039724F0B9
:100900001092BD011092BC018091BC019091BD017B
:1009100001969093BD018093BC0108950895CF93F3
:10092000DF93FC0101900020E9F73197AF01481BEC
:10093000590BBC018FEC91E00E949402EC0142E063
:1009400050E06BE171E08FEC91E00E9494028C0F1B
:100950009D1FDF91CF9108951F920F920FB60F92B6
:1009600011242F933F934F935F936F937F938F93B4
:100970009F93AF93BF93EF93FF938091C3019091A7
:10098000C401A091C501B091C601892B8A2B8B2B84
:10099000D1F19091BE01E091BF01F091C001808141
:1009A000892780838091C3019091C401A091C501E2
:1009B000B091C601181619061A061B069CF4809100
:1009C000C3019091C401A091C501B091C6010197E6
:1009D000A109B1098093C3019093C401A093C501FB
:1009E000B093C601FF91EF91BF91AF919F918F910D
:1009F0007F916F915F914F913F912F910F900FBE1B
:100A00000F901F901895809108010E94ED03EACF86
:100A10001F920F920FB60F9211242F933F934F9373
:100A20005F936F937F938F939F93AF93BF93EF9356
:100A3000FF938FEC91E00E941203FF91EF91BF9121
:100A4000AF919F918F917F916F915F914F913F9166
:100A50002F910F900FBE0F901F9018951F920F921D
:100A60000FB60F9211242F938F939F93EF93FF93C1
:100A7000E091DF01F091E0018081E091E501F091EA
:100A8000E60182FD1BC090818091E8018F5F8F732A
:100A90002091E901821741F0E091E801F0E0E15393
:100AA000FE4F958F8093E801FF91EF919F918F9179
:100AB0002F910F900FBE0F901F9018958081F4CF4B
:100AC0001F920F920FB60F9211242F933F938F9383
:100AD0009F93AF93BF938091B1019091B201A09188
:100AE000B301B091B4013091B00123E0230F2D3751
:100AF00058F50196A11DB11D2093B0018093B1015D
:100B00009093B201A093B301B093B4018091B50169
:100B10009091B601A091B701B091B8010196A11DC5
:100B2000B11D8093B5019093B601A093B701B09326
:100B3000B801BF91AF919F918F913F912F910F90ED
:100B40000FBE0F901F90189526E8230F0296A11D47
:100B5000B11DD2CF1F920F920FB60F9211242F9377
:100B60003F934F935F936F937F938F939F93AF9335
:100B7000BF93EF93FF93E0910201F0910301099578
:100B8000FF91EF91BF91AF919F918F917F916F9165
:100B90005F914F913F912F910F900FBE0F901F903B
:100BA00018951F920F920FB60F9211242F933F9317
:100BB0004F935F936F937F938F939F93AF93BF9365
:100BC000EF93FF93E0910001F09101010995FF91EE
:100BD000EF91BF91AF919F918F917F916F915F91B5
:100BE0004F913F912F910F900FBE0F901F9018952E
:100BF000789484B5826084BD84B5816084BD85B5F8
:100C0000826085BD85B5816085BD80916E00816003
:100C100080936E00109281008091810082608093A9
:100C200081008091810081608093810080918000AB
:100C30008160809380008091B10084608093B100D6
:100C40008091B00081608093B00080917A008460D0
:100C500080937A0080917A00826080937A008091FC
:100C60007A00816080937A0080917A008068809316
:100C70007A001092C100E091DF01F091E00182E082
:100C80008083E091DB01F091DC011082E091DD01D5
:100C9000F091DE018FEC80831092E701E091E30197
:100CA000F091E40186E08083E091E101F091E201BE
:100CB000808180618083E091E101F091E201808197
:100CC00088608083E091E101F091E2018081806899
:100CD0008083E091E101F091E20180818F7D80834A
:100CE0008DE00E94880082E00E94880061E082E03E
:100CF0000E94A1038EE191E00E948F0481E794E0BD
:100D00009093010180930001809169008C7F826043
:100D100080936900E89A80E0E82E80E0F82EDD24D8
:100D2000D39401E010E08091BC019091BD0182302C
:100D3000910509F470C08330910509F48DC00197C5
:100D400009F0E9C083E591E00E948F04D092BB01D5
:100D50008091BB01882309F452C0809106019091D3
:100D60000701892B69F11092BA011092B901A09084
:100D7000B901B090BA0184E8A81683E0B806C4F5BA
:100D8000C0910401D0910501CE010E94A70060E04E
:100D900070E0CB010E943E042196D0930501C093E0
:100DA0000401CC3DD54021F41092070110920601B8
:100DB0008FEFA81AB80AB092BA01A092B901D7CFA2
:100DC000C0910401D0910501CE010E94A70060E00E
:100DD00070E0CB010E943E042197D0930501C0939F
:100DE0000401C835D24021F4109307010093060195
:100DF0008091BC019091BD01019709F4A9CFE11444
:100E0000F10409F490CF0E94FE02882309F48BCFED
:100E10000E94000088CF80E791E00E948F04D0926A
:100E2000BB0180E293E00E94A70068E572E080E0E9
:100E300090E00E943E0488EE93E00E94A70068E5DF
:100E400072E080E090E00E943E048091BC019091AD
:100E5000BD01029731F3D3CF80E991E00E948F0466
:100E6000D092BB018091BB01882349F28091060199
:100E700090910701892B71F11092BA011092B9017A
:100E8000A090B901B090BA0184E8A81683E0B80632
:100E9000D4F5C0910401D0910501CE010E94A700B4
:100EA00062E070E080E090E00E943E042196D093E2
:100EB0000501C0930401CC3DD54021F410920701F7
:100EC000109206018FEFA81AB80AB092BA01A09248
:100ED000B901D6CFC0910401D0910501CE010E9485
:100EE000A70062E070E080E090E00E943E0421975D
:100EF000D0930501C0930401C835D24021F410936A
:100F00000701009306018091BC019091BD010397F8
:100F100009F4A8CF74CF8DE00E94ED0370CFEFEC01
:100F2000F1E01382128288EE93E0A0E0B0E08483C7
:100F30009583A683B7838DE091E09183808385ECD0
:100F400090E09587848784EC90E09787868780EC93
:100F500090E0918B808B81EC90E0938B828B82EC84
:100F600090E0958B848B86EC90E0978B868B118E2E
:100F7000128E138E148E0895052E97FB1EF4009486
:100F80000E94D30757FD07D00E94DB0707FC03D060
:100F90004EF40C94D30750954095309521953F4FD2
:100FA0004F4F5F4F089590958095709561957F4F55
:100FB0008F4F9F4F0895A1E21A2EAA1BBB1BFD0164
:100FC0000DC0AA1FBB1FEE1FFF1FA217B307E40728
:100FD000F50720F0A21BB30BE40BF50B661F771F80
:100FE000881F991F1A9469F7609570958095909560
:100FF0009B01AC01BD01CF010895EE0FFF1F0590CD
:0A100000F491E02D0994F894FFCF5D
:10100A008E048E0458020100FF000000003403948D
:10101A0002C1028103F202D002E4020D0A00E5BC19
:10102A0080E5A78BE68AA5E8ADA6EFBC8CE68C899D
:10103A00E4B88BE68C89E994AEE58887E68DA2E46C
:10104A00B88DE5908CE68AA5E8ADA6E5A3B0EFBC1D
:10105A009A0A00E8ADA6E8BDA6E9A9B6E8BF87E600
:10106A008AA5E8ADA6E5A3B0E6A8A1E68B9F0A008B
:10107A00E69591E68AA4E8BDA6E9A9B6E8BF87E69F
:10108A008AA5E8ADA6E5A3B0E6A8A1E68B9F0A006B
:10109A00E6B688E998B2E8BDA6E9A9B6E8BF87E648
:1010AA008AA5E8ADA6E5A3B0E6A8A1E68B9F0A004B
:00000001FF
