:100000000C9463000C948B000C948B000C948B006C
:100010000C948B000C948B000C948B000C94230399
:100020000C948B000C948B000C948B000C948B0024
:100030000C948B000C948B000C948B000C948B0014
:100040000C94D7030C948B000C94A5030C947F03A1
:100050000C948B000C948B000C948B000C948B00F4
:100060000C948B000C948B000000000024002700EF
:100070002A000000000023002600290000000008DC
:10008000000201000003040700000000000000005F
:10009000010204081020408001020408102001021F
:1000A0000408102000000000250028002B00040494
:1000B0000404040404040202020202020303030310
:1000C00003030200ED0611241FBECFEFD8E0DEBF10
:1000D000CDBF11E0A0E0B1E0ECE1F2E102C005909B
:1000E0000D92AC36B107D9F722E0ACE6B1E001C021
:1000F0001D92AB32B207E1F710E0C3E6D0E004C0D6
:100100002197FE010E940609C236D107C9F70E9455
:1001100021040C940C090C940000AF92BF92CF9272
:10012000DF92EF92FF920F931F93CF93DF936C01B7
:100130007B018B01040F151FEB015E01AE18BF0898
:10014000C017D10759F06991D601ED91FC9101904A
:10015000F081E02DC6010995892B79F7C501DF9162
:10016000CF911F910F91FF90EF90DF90CF90BF90B4
:10017000AF900895FC01538D448D252F30E0842FDE
:1001800090E0821B930B541710F0CF9608950197BF
:100190000895FC01918D828D981761F0A28DAE0FAC
:1001A000BF2FB11D5D968C91928D9F5F9F73928F33
:1001B00090E008958FEF9FEF0895FC01918D828D5F
:1001C000981731F0828DE80FF11D858D90E008952C
:1001D0008FEF9FEF0895FC01918D228D892F90E084
:1001E000805C9F4F821B91098F73992708958EE839
:1001F00091E00E94EB0021E0892B09F420E0822F9E
:10020000089580E090E0892B29F00E94F700811189
:100210000C9400000895FC01A48DA80FB92FB11D06
:10022000A35ABF4F2C91848D90E001968F7399272C
:10023000848FA689B7892C93A089B1898C9183700A
:1002400080648C93938D848D981306C00288F38903
:10025000E02D80818F7D80830895EF92FF920F9330
:100260001F93CF93DF93EC0181E0888F9B8D8C8D62
:1002700098131AC0E889F989808185FF15C09FB756
:10028000F894EE89FF896083E889F9898081837019
:10029000806480839FBF81E090E0DF91CF911F91C8
:1002A0000F91FF90EF900895F62E0B8D10E00F5FE9
:1002B0001F4F0F731127E02E8C8D8E110CC00FB6BF
:1002C00007FCFACFE889F989808185FFF5CFCE0157
:1002D0000E940B01F1CFEB8DEC0FFD2FF11DE35AC6
:1002E000FF4FF0829FB7F8940B8FEA89FB898081DA
:1002F0008062CFCFCF93DF93EC01888D8823B9F054
:10030000AA89BB89E889F9898C9185FD03C0808120
:1003100086FD0DC00FB607FCF7CF8C9185FFF2CF9D
:10032000808185FFEDCFCE010E940B01E9CFDF91E7
:10033000CF910895833081F028F4813099F0823094
:10034000A9F008958730A9F08830C9F08430B1F45D
:10035000809180008F7D03C0809180008F77809393
:100360008000089584B58F7784BD089584B58F7D0E
:10037000FBCF8091B0008F778093B000089580917B
:10038000B0008F7DF9CFCF93DF93282F30E0F901B4
:10039000E458FF4F8491F901E057FF4FD491F901E0
:1003A000E255FF4FC491CC23A1F081110E949A0124
:1003B000EC2FF0E0EE0FFF1FEE58FF4FA591B49128
:1003C000EC91ED2381E090E009F480E0DF91CF91A2
:1003D000089580E090E0FACF1F93CF93DF93282F0A
:1003E00030E0F901E458FF4F8491F901E057FF4FE5
:1003F000D491F901E255FF4FC491CC23A9F0162FF7
:1004000081110E949A01EC2FF0E0EE0FFF1FEC55D6
:10041000FF4FA591B4918FB7F894EC91111108C0DA
:10042000D095DE23DC938FBFDF91CF911F9108958C
:10043000DE2BF8CF9091000189130BC0E2ECF0E0C5
:10044000E4919FEF90930001E13049F028F0E23011
:1004500061F060E00C94EC0110926E00FACF909184
:100460006F009D7F90936F00F4CF909170009D7FFF
:100470009093700091E09093B0009091B100987FBC
:1004800094609093B1001092B300E3CFCF93DF93C9
:1004900090E0FC01E057FF4F249182559F4FFC01F3
:1004A00084918823D1F090E0880F991FFC01E859CE
:1004B000FF4FA591B491FC01EC55FF4FC591D4912C
:1004C00061110EC09FB7F8948C91E22FE0958E23B6
:1004D0008C932881E223E8839FBFDF91CF91089519
:1004E0008FB7F894EC91E22BEC938FBFF6CF3FB728
:1004F000F8948091710190917201A0917301B09173
:10050000740126B5A89B05C02F3F19F00196A11DC7
:10051000B11D3FBFBA2FA92F982F8827BC01CD014D
:10052000620F711D811D911D42E0660F771F881FAC
:10053000991F4A95D1F708958F929F92AF92BF92DB
:10054000CF92DF92EF92FF920E9477024B015C0103
:1005500084EFC82EDD24D394E12CF12C0E94770285
:10056000681979098A099B09683E734081059105DC
:10057000A8F321E0C21AD108E108F10888EE880E3C
:1005800083E0981EA11CB11CC114D104E104F10444
:1005900029F7FF90EF90DF90CF90BF90AF909F90A2
:1005A0008F900895FC0101900020E9F73197AF0189
:1005B000481B590BBC018EE891E00C948D008F9282
:1005C0009F92AF92BF920F931F93CF93DF93CDB7BC
:1005D000DEB7A1970FB6F894DEBF0FBECDBF19A24C
:1005E000423008F44AE08E010F5D1F4F842E912C9B
:1005F000B12CA12CA50194010E94E408E62FB901B9
:10060000CA01EA30F4F4E05DD801EE938D01232BAA
:10061000242B252B79F790E080E0109719F0CD017D
:100620000E94D202A1960FB6F894DEBF0FBECDBFD6
:10063000DF91CF911F910F91BF90AF909F908F90BE
:100640000895E95CE1CF1F920F920FB60F9211242B
:100650002F933F934F935F936F937F938F939F93CA
:10066000AF93BF93EF93FF9380917A0190917B01B9
:10067000A0917C01B0917D01892B8A2B8B2BD1F12C
:1006800090917501E0917601F09177018081892741
:10069000808380917A0190917B01A0917C01B0913F
:1006A0007D01181619061A061B069CF480917A0122
:1006B00090917B01A0917C01B0917D010197A109EE
:1006C000B10980937A0190937B01A0937C01B09350
:1006D0007D01FF91EF91BF91AF919F918F917F919C
:1006E0006F915F914F913F912F910F900FBE0F909F
:1006F0001F901895809100010E941A02EACF1F9264
:100700000F920FB60F9211242F933F934F935F9345
:100710006F937F938F939F93AF93BF93EF93FF93C9
:100720008EE891E00E940B01FF91EF91BF91AF9194
:100730009F918F917F916F915F914F913F912F91F9
:100740000F900FBE0F901F9018951F920F920FB62B
:100750000F9211242F938F939F93EF93FF93E09128
:100760009E01F0919F018081E091A401F091A5018B
:1007700082FD1BC090818091A7018F5F8F732091B4
:10078000A801821741F0E091A701F0E0E257FE4F87
:10079000958F8093A701FF91EF919F918F912F915A
:1007A0000F900FBE0F901F9018958081F4CF1F926D
:1007B0000F920FB60F9211242F933F938F939F9315
:1007C000AF93BF9380916D0190916E01A0916F01E5
:1007D000B091700130916C0123E0230F2D3758F553
:1007E0000196A11DB11D20936C0180936D01909322
:1007F0006E01A0936F01B09370018091710190918F
:100800007201A0917301B09174010196A11DB11DF7
:100810008093710190937201A0937301B09374015E
:10082000BF91AF919F918F913F912F910F900FBEEC
:100830000F901F90189526E8230F0296A11DB11D59
:10084000D2CF789484B5826084BD84B5816084BD44
:1008500085B5826085BD85B5816085BD80916E005E
:10086000816080936E00109281008091810082608F
:1008700080938100809181008160809381008091CC
:1008800080008160809380008091B10084608093BB
:10089000B1008091B00081608093B00080917A00B7
:1008A000846080937A0080917A00826080937A00DD
:1008B00080917A00816080937A0080917A008068CC
:1008C00080937A001092C100E0919E01F0919F0107
:1008D00082E08083E0919A01F0919B011082E09187
:1008E0009C01F0919D018FEC80831092A601E09114
:1008F000A201F091A30186E08083E091A001F09134
:10090000A101808180618083E091A001F091A1012B
:10091000808188608083E091A001F091A1018081B5
:1009200080688083E091A001F091A10180818F7D9A
:10093000808383E191E00E94D20284E291E00E94F0
:10094000D20210928A0110928B0110928C011092A7
:100950008D01109289011092880161E088E00E9467
:10096000460260E083E00E94460260E089E00E9467
:10097000460236EB232E30E0332EC8E9D0E088243F
:100980008A94982C540110E410937C0080917A0092
:10099000806480937A0080917A0086FDFCCF60911C
:1009A000780070917900072E000C880B990B0E943B
:1009B000BD0723E23BED49EF5EE30E9472086093BE
:1009C0008A0170938B0180938C0190938D0183E059
:1009D0000E94C3017C01909389018093880189E082
:1009E0000E94C3016C0190938701809386016091FE
:1009F0008A0170918B0180918C0190918D0120E092
:100A000030E048E452E40E946D0887FF65C081E051
:100A1000E816F10409F460C060918A0170918B01BD
:100A200080918C0190918D0120E030E048E452E407
:100A30000E94870787FD3BC187E291E00E94D202B6
:100A4000C0908A01D0908B01E0908C01F0908D01D4
:100A5000A7019601C701B6010E94DF08882309F4A7
:100A60002AC187E491E00E94D20284E291E00E94D0
:100A7000D20283E591E00E94D202C0908801D0901A
:100A800089010D2C000CEE08FF084AE0C701B601F1
:100A9000F7FE0DC06DE28EE891E00E942D01662701
:100AA0007727CB016C197D098E099F094AE00E94C6
:100AB000DF0284E291E00E94D2020E949C02E0E008
:100AC000F0E0EF2B09F460CF0E94F700882309F4CF
:100AD0005ACF0E94000057CF61E089E00E94EC01EC
:100AE00091E0C916D10409F0D7C061E082E00E940C
:100AF000EC01809100018830B9F4E2ECF0E004915F
:100B000007FDB0C061E088E00E944602002309F4BE
:100B10007AC0023009F08BC08091B100887F846078
:100B20008093B10089EFA8C08F3F09F09BC088E097
:100B300080930001E2ECF0E004910F3F09F492C0D1
:100B4000013019F150F0023009F43CC007FD8AC0B1
:100B500061E088E00E944602DCCF14BC15BC84B57D
:100B6000826084BD85B5816085BDF1018491E82FE7
:100B7000F0E0EE0FFF1FEC55FF4F85919491FE01C1
:100B800084918093790100E0BDCF10928000109293
:100B90008100809181008860809381008091810034
:100BA000816080938100F1018491E82FF0E0EE0FE5
:100BB000FF1FEC55FF4F85919491FE018491809326
:100BC0007801A0CF1092B0001092B1008091B000D7
:100BD00082608093B0008091B10081608093B10009
:100BE000F1018491E82FF0E0EE0FFF1FEC55FF4F6D
:100BF000859194919093770180937601FE01849181
:100C0000809375017FCF85B5887F836085BD89EF2F
:100C100087BD8092820190928301A0928401B0925C
:100C2000850180916E00826080936E001BC0013050
:100C3000E1F480918100887F8160809381008FE75B
:100C40009EE3909389008093880080927E01909229
:100C50007F01A0928001B092810180916F0082603B
:100C600080936F000E949C02E7CE023021F00111B8
:100C7000F9CF8FE7CDCF8FE78093B30080927A01D1
:100C800090927B01A0927C01B0927D0180917000D6
:100C9000826080937000E6CFCD2809F0CDCE60E071
:100CA00082E00E94EC0188E00E941A02C5CEEF2883
:100CB00009F0C2CEF4CF26013701E89477F82FEF80
:100CC0003FEF4FE75FE7C301B2010E94DF088111E8
:100CD0000DC02FEF3FEF4FE75FE7C301B2010E9466
:100CE000870718161CF48BE491E0BDCE2FEF3FEF81
:100CF0004FE75FE4C701B6010E946D0818161CF4A7
:100D00008FE491E0B0CE2FEF3FEF4FE75FECC701EC
:100D1000B6010E94870787FDF3CF20E030E0A901EC
:100D2000C701B6010E94870787FF09C06DE28EE800
:100D300091E00E942D01F7FAF094F7F8F0942AE080
:100D400037ED43EA5BE3C701B6010E941B072B01A5
:100D50003C010E948C076B017C010E94BB079B0138
:100D6000AC01C301B2010E941A072B013C014AE009
:100D7000C701B6010E94DF026EE28EE891E00E9498
:100D80002D0120E030E040E251E4C301B2010E94B5
:100D900072082B013C010E948C076B01F12CE12CA5
:100DA0004AE0C701B6010E94DF02C701B6010E94F6
:100DB000BB079B01AC01C301B2010E941A0720E0EE
:100DC00030E040E251E40E9472080E948C0790E0FB
:100DD00080E04AE00E94DF0248CEEEE8F1E01382B4
:100DE000128288EE93E0A0E0B0E084839583A6832E
:100DF000B78385E091E09183808385EC90E09587CF
:100E0000848784EC90E09787868780EC90E0918BD4
:100E1000808B81EC90E0938B828B82EC90E0958BC1
:100E2000848B86EC90E0978B868B118E128E138EBE
:100E3000148E08955058BB27AA270E9432070C949D
:100E400033080E94250838F00E942C0820F039F45D
:100E50009F3F19F426F40C9422080EF4E095E7FB6A
:100E60000C941C08E92F0E94440858F3BA17620733
:100E700073078407950720F079F4A6F50C946608AB
:100E80000EF4E0950B2EBA2FA02D0B01B9019001A5
:100E90000C01CA01A0011124FF27591B99F0593FE9
:100EA00050F4503E68F11A16F040A22F232F342F31
:100EB0004427585FF3CF469537952795A795F0407F
:100EC0005395C9F77EF41F16BA0B620B730B840B94
:100ED000BAF09150A1F0FF0FBB1F661F771F881F4C
:100EE000C2F70EC0BA0F621F731F841F48F48795A4
:100EF00077956795B795F7959E3F08F0B0CF939596
:100F0000880F08F09927EE0F9795879508950E940E
:100F1000F80708F481E008950E944C0888F09F5774
:100F200098F0B92F9927B751B0F0E1F0660F771F0D
:100F3000881F991F1AF0BA95C9F714C0B13091F003
:100F40000E946608B1E008950C946608672F782F18
:100F50008827B85F39F0B93FCCF3869577956795C8
:100F6000B395D9F73EF490958095709561957F4F34
:100F70008F4F9F4F0895E89409C097FB3EF49095DA
:100F80008095709561957F4F8F4F9F4F9923A9F062
:100F9000F92F96E9BB279395F695879577956795F1
:100FA000B795F111F8CFFAF4BB0F11F460FF1BC035
:100FB0006F5F7F4F8F4F9F4F16C0882311F096E9C8
:100FC00011C0772321F09EE8872F762F05C0662376
:100FD00071F096E8862F70E060E02AF09A95660F2F
:100FE000771F881FDAF7880F9695879597F90895E8
:100FF000990F0008550FAA0BE0E8FEEF161617062A
:10100000E807F907C0F012161306E407F50798F091
:10101000621B730B840B950B39F40A2661F0232BAA
:10102000242B252B21F408950A2609F4A140A69526
:101030008FEF811D811D089597F99F6780E870E00B
:1010400060E008959FEF80EC089500240A9416163E
:10105000170618060906089500240A9412161306A6
:10106000140605060895092E0394000C11F4882334
:1010700052F0BB0F40F4BF2B11F460FF04C06F5F50
:101080007F4F8F4F9F4F089557FD9058440F551F26
:1010900059F05F3F71F04795880F97FB991F61F0FA
:1010A0009F3F79F087950895121613061406551F71
:1010B000F2CF4695F1DF08C0161617061806991FDD
:1010C000F1CF86957105610508940895E894BB27D2
:1010D00066277727CB0197F908950E94F80708F44F
:1010E0008FEF08950E9485080C9433080E9425080C
:1010F00038F00E942C0820F0952311F00C941C0865
:101100000C94220811240C9467080E94440870F380
:10111000959FC1F3950F50E0551F629FF001729F9C
:10112000BB27F00DB11D639FAA27F00DB11DAA1FAB
:10113000649F6627B00DA11D661F829F2227B00DF8
:10114000A11D621F739FB00DA11D621F839FA00D83
:10115000611D221F749F3327A00D611D231F849FD3
:10116000600D211D822F762F6A2F11249F5750402A
:101170009AF0F1F088234AF0EE0FFF1FBB1F661FA5
:10118000771F881F91505040A9F79E3F510580F06E
:101190000C941C080C9467085F3FE4F3983ED4F36A
:1011A000869577956795B795F795E7959F5FC1F712
:1011B000FE2B880F911D9695879597F908950E94AB
:1011C000F807880B990B0895A1E21A2EAA1BBB1BE6
:1011D000FD010DC0AA1FBB1FEE1FFF1FA217B30703
:1011E000E407F50720F0A21BB30BE40BF50B661F19
:1011F000771F881F991F1A9469F7609570958095DD
:1012000090959B01AC01BD01CF010895EE0FFF1F2A
:0C1210000590F491E02D0994F894FFCFB4
:10121C00FF000000002D018D00BA007A01EB00C91F
:10122C0000DD00446574656374696F6E20626567E8
:10123C00696E21000D0A0054656D706572617475DC
:10124C00726520666F7220746865206465766963C8
:10125C00652069733A20006E616E00696E66006FDE
:10126C0076660047617320666F722074686520642F
:0C127C0065766963652069733A20000004
:00000001FF
